:020000040000FA
:0400000007EF00F016
:100008007E827CED39F054EF3CF000018C6F000EDD
:1000180000018B6F3A0E8C6114EF00F016EF00F0C0
:1000280020EF00F02F0E8C651CEF00F01EEF00F0A3
:1000380020EF00F0010E8B6F8BC08AF08A3112001E
:10004800036E000E026E3A0E03602DEF00F02FEFE4
:1000580000F039EF00F02F0E036435EF00F037EFB2
:1000680000F039EF00F0010E026E02C001F001301D
:1000780012009494959A0F0EBD6ECA849E929EA209
:1000880048EF00F04AEF00F043EF00F09E929EA286
:1000980050EF00F052EF00F04BEF00F0120001506B
:1000A8000302F3CF05F0F4CF06F001500402F35039
:1000B800062602500302F350062605C001F006C0CA
:1000C80002F012003C2D202020202020202020207B
:1000D800202020200020202020204E49564549532A
:1000E800202020202000B896330EAF6EAC9CAC8A3E
:1000F800AC98AC84AB8EAB9CAB881200016E01C08F
:10010800ADFFACA28AEF00F08CEF00F085EF00F0B5
:100118001200010EC26E0B0EC16E010EC06E1200EF
:10060000000000803F000020410000C84200007A46
:100610004400401C460050C347002474498096188B
:100620004B20BCBE4C286B6E4EF9021550EC78ADD9
:1006300060CAF249710000803FCDCCCC3D0AD7237F
:100640003C6F12833A17B7D138ACC52737BD378610
:100650003595BFD63377CC2B325F708930FFE6DB20
:100660002E08E53C1E6042A20D01020400010000BC
:10067000000A00000064000000E8030000102700EA
:1006800000A086010040420F008096980000E1F52E
:100690000500CA9A3B4D414E55414C202020200078
:1006A0004C49472020202020004445534C20202046
:1006B00020004155544F2020002F2A25303464005B
:1006C0002530342E326600253032640A002530335E
:1006D000640A002F25303264002F25303464000076
:1006E000DA0E0101E16F000EE26F87EF0AF0250ECE
:1006F000F719D8B47EEF03F080EF03F08BEF03F02F
:10070000D6C0D9FFD7C0DAFFF7C1DFFF0001D64B53
:10071000D72B87EF0AF0000EF06F000EEF6F000E80
:10072000EE6F000EED6F9AEF03F00101ED85000111
:10073000D84BD92BD8C0F6FFD9C0F7FF0800F55029
:10074000300AD8B495EF03F0A6EF03F0D8C0F6FF57
:10075000D9C0F7FF0800F55009EC00F0D8A0B3EFBE
:1007600003F0B5EF03F0F3EF03F0000E0101F06FBB
:10077000000EEF6FEFC18AF0F0C18BF0000E0001A8
:100780008D6F0A0E8C6FECEC3FF08AC0EFF18BC0DE
:10079000F0F1D00E0001DE6FFF0EDF6FD8C0F6FF64
:1007A000D9C0F7FF0800F550E06FE16BDE51E0279C
:1007B000DF51E123E0510101EF270001E151010187
:1007C000F0230001D84BD92BD8C0F6FFD9C0F7FFD2
:1007D0000800F55009EC00F0D8B0F1EF03F0F3EFAA
:1007E00003F0BAEF03F0D8C0F6FFD9C0F7FF080056
:1007F000F5502E0AD8A4FFEF03F001EF04F048EF04
:1008000004F00101EE8D0001D84BD92B000E01013F
:10081000F66F000EF56F37EF04F0F5C18AF0F6C100
:100820008BF0000E00018D6F0A0E8C6FECEC3FF028
:100830008AC0F5F18BC0F6F1D00E0001DE6FFF0E1D
:10084000DF6FD8C0F6FFD9C0F7FF0800F550E06FA2
:10085000E16BDE51E027DF51E123E0510101F52793
:100860000001E1510101F6230001D84BD92BD8C07A
:10087000F6FFD9C0F7FF0800F55009EC00F0D8B03A
:1008800044EF04F046EF04F00DEF04F053EF04F0F2
:10089000000E0101F66F000EF56FEE8953EF04F0C4
:1008A000EE8571EF04F0D8C0F6FFD9C0F7FF000164
:1008B000D84BD92B0800F5CFF7F10101F751000A09
:1008C000D8B49AEF0AF0640AD8B471EF04F0020ABF
:1008D000D8B450EF04F00F0AD8B471EF04F087EFEA
:1008E0000AF0070EEE15D8B478EF04F07AEF04F0B2
:1008F000B4EF08F0EEA97FEF04F081EF04F085EF8C
:1009000004F0000EF66F060EF56FE1C1D9FFE2C1EB
:10091000DAFFDECFF1F1DECFF2F1DECFF3F1DECFA1
:10092000F4F1040EE127000EE223F4BF9CEF04F083
:100930009AEF04F0B1EF04F0F1C18AF0F2C18BF04C
:10094000F3C18CF0F4C18DF096EC3FF08AC0F1F168
:100950008BC0F2F18CC0F3F18DC0F4F1030E0101F4
:10096000ED13000EEC6F000EEB6FF1C18AF0F2C1D7
:100970008BF0F3C18CF0F4C18DF0000E00018E6F8E
:10098000000E8F6F000E906F000E916F2CEC3AF0FE
:100990000001D8B0CEEF04F0D0EF04F068EF05F01E
:1009A0000101F335F435820FEB6FEC6BFF0EEC2396
:1009B000EB07D8A0EC07EBC18AF0ECC18BF0000E7E
:1009C00000018D6F030E8C6FECEC3FF08AC0EBF1F1
:1009D0008BC0ECF1EBC190F0ECC191F0000E000186
:1009E000936F0A0E926F46EC37F090C0EBF191C016
:1009F000ECF10101ECBF01EF05F0FFEF04F004EFB3
:100A000005F0EB07D8A0EC07EB510008CEEC1CF08A
:100A1000B1C0E3F1B2C0E4F1B3C0E5F1B4C0E6F1B6
:100A2000E3C198F0E4C199F0E5C19AF0E6C19BF00A
:100A3000F1C19CF0F2C19DF0F3C19EF0F4C19FF0B2
:100A4000A3EC18F098C0E3F199C0E4F19AC0E5F185
:100A50009BC0E6F1E3C18AF0E4C18BF0E5C18CF004
:100A6000E6C18DF0000E00018E6F000E8F6F800EBC
:100A7000906F3F0E916FC4EC34F00001D8B043EF9B
:100A800005F045EF05F04BEF05F00101EB07D8A0AD
:100A9000EC0768EF05F0E3C18AF0E4C18BF0E5C133
:100AA0008CF0E6C18DF0000E8E6F000E8F6F200E61
:100AB000906F410E916FC4EC34F00001D8A063EF49
:100AC00005F065EF05F068EF05F00101EB4BEC2B4D
:100AD0000101F6BF77EF05F0F65107E10D0EF55D68
:100AE000D8B075EF05F077EF05F094EF05F0F1C1A0
:100AF000BEF0F2C1BFF0F3C1C0F0F4C1C1F0F551D6
:100B000019EC28F0B1C0C2F0B2C0C3F0B3C0C4F059
:100B1000B4C0C5F0E2EC13F0BEC0F1F1BFC0F2F119
:100B2000C0C0F3F1C1C0F4F10101ECBFA3EF05F0C7
:100B3000EC5107E10A0EEB5DD8B0A1EF05F0A3EF91
:100B400005F0E3EF05F0F1C18AF0F2C18BF0F3C1DB
:100B50008CF0F4C18DF0000E00018E6F000E8F6FCF
:100B6000000E906F000E916F2CEC3AF00001D8B09F
:100B7000BCEF05F0BEEF05F03AEF06F0F1C1BAF0B8
:100B8000F2C1BBF0F3C1BCF0F4C1BDF040EC34F0F5
:100B90000001BA51BB11BC11BD11D8A4D2EF05F0B0
:100BA000D4EF05F03AEF06F00101ECBFE1EF05F0FC
:100BB000EC5109E1020EEB5DD8A0E1EF05F0E3EFA7
:100BC00005F03AEF06F0E3C18AF0E4C18BF0E5C12D
:100BD0008CF0E6C18DF05F0E00018E6F700E8F6F8E
:100BE000890E906F400E916FC4EC34F00001D8B0C4
:100BF000FCEF05F0FEEF05F005EF06F00101F70E42
:100C0000EB27FF0EEC230AEF06F00101F80EEB27AD
:100C1000FF0EEC23EB51CEEC1CF0B1C0E3F1B2C0FF
:100C2000E4F1B3C0E5F1B4C0E6F1F1C18AF0F2C17C
:100C30008BF0F3C18CF0F4C18DF0E3C18EF0E4C110
:100C40008FF0E5C190F0E6C191F068EC2FF08AC01A
:100C5000E7F18BC0E8F18CC0E9F18DC0EAF1000E3C
:100C60000101F16F000EF26F000EF36F000EF46FD2
:100C700076EF06F0F1C1BAF0F2C1BBF0F3C1BCF0FF
:100C8000F4C1BDF040EC34F0BAC0E7F1BBC0E8F10C
:100C9000BCC0E9F1BDC0EAF1F1C1CEF0F2C1CFF0C4
:100CA000F3C1D0F0F4C1D1F0E7C18AF0E8C18BF014
:100CB000E9C18CF0EAC18DF0000EB4EC2BF08AC0D3
:100CC000D2F08BC0D3F08CC0D4F08DC0D5F04FECF7
:100CD0003FF0CEC0F1F1CFC0F2F1D0C0F3F1D1C0FE
:100CE000F4F1000E0101EC6F000EEB6F010EF76FD7
:100CF000F751040D6D0EF324F66E060EF420F76E18
:100D00000900F550E75D0900F550E8590900F55074
:100D1000E9590900F550EA59D8B091EF06F093EF80
:100D200006F095EF06F09FEF06F0F72B0A0EF71985
:100D3000D8A49DEF06F09FEF06F078EF06F0F7518C
:100D4000F5250001DE6F000E0101F6210001DF6FC5
:100D50000101EB510001DE270101EC510001DF230D
:100D6000DE510101EF5F0001DF510101F05BF55140
:100D7000F611D8B4BEEF06F0C0EF06F0C3EF06F0F0
:100D8000EF07D8A0F007030EED150001DE6F000E8F
:100D90000101EE150001DF6FDE51DF11D8B4D3EF92
:100DA00006F0D5EF06F0D9EF06F00101EF07D8A065
:100DB000F0070101EDA5DFEF06F0E1EF06F027EF08
:100DC00007F0030EED150001DE6F000E0101EE15B8
:100DD0000001DF6FDE51DF11D8B4F1EF06F0F3EF61
:100DE00006F00AEF07F0D6C0D9FFD7C0DAFF2D0E04
:100DF000DF6ED64BD72B0AEF07F0D6C0D9FFD7C08E
:100E0000DAFF300EDF6E0001D64BD72B0101EF0762
:100E1000D8A0F0070101F0BF18EF07F0F05106E18C
:100E2000EF05D8B016EF07F018EF07F0FDEF06F06A
:100E30009CEF07F0D6C0D9FFD7C0DAFF200EDF6ED7
:100E40000001D64BD72B0101EF07D8A0F007F0BF68
:100E500034EF07F0F05106E1EF05D8B032EF07F0BC
:100E600034EF07F01AEF07F0030EED150001DE6F07
:100E7000000E0101EE150001DF6FDE51DF11D8B465
:100E800044EF07F046EF07F09CEF07F0D6C0D9FF1C
:100E9000D7C0DAFF2D0EDF6E0001D64BD72B9CEFAB
:100EA00007F0E7C18AF0E8C18BF0E9C18CF0EAC134
:100EB0008DF0F751040D6D0EF324F66E060EF4203E
:100EC000F76E0900F5CF8EF00900F5CF8FF009001D
:100ED000F5CF90F00A00F5CF91F0D7EC3AF08AC048
:100EE000E3F18BC0E4F18CC0E5F18DC0E6F1E3C124
:100EF00097F0E4C198F0E5C199F0E6C19AF00A0EC6
:100F000000019B6F000E9C6F000E9D6F000E9E6F88
:100F1000CBEC3BF097C0E3F198C0E4F199C0E5F168
:100F20009AC0E6F10101E351300FD6C0D9FFD7C016
:100F3000DAFFDF6E4CEF07F00101F707F729D8A4BD
:100F4000A4EF07F0A6EF07F051EF07F0B5EF07F0B9
:100F5000D6C0D9FFD7C0DAFF300EDF6E0001D64B06
:100F6000D72B0101EB07D8A0EC07ECBFC2EF07F0CD
:100F7000EC5106E1EB05D8B0C0EF07F0C2EF07F087
:100F8000A8EF07F0F6BFCEEF07F0F65109E1090E22
:100F9000F55DD8A0CEEF07F0D0EF07F0D4EF07F063
:100FA000080EF76FD6EF07F0F5C1F7F1F751F55FCF
:100FB000000EF65BF751D8B4E0EF07F0E2EF07F070
:100FC000EBEF07F0D6C0D9FFD7C0DAFF2E0EDF6EE9
:100FD0000001D64BD72B0101F751CEEC1CF0B1C06C
:100FE000DDF1B2C0DEF1B3C0DFF1B4C0E0F1F1C1B8
:100FF0009CF0F2C19DF0F3C19EF0F4C19FF0DDC101
:1010000098F0DEC199F0DFC19AF0E0C19BF0A3EC4B
:1010100018F098C0BAF099C0BBF09AC0BCF09BC061
:10102000BDF040EC34F0BAC0E7F1BBC0E8F1BCC0A1
:10103000E9F1BDC0EAF190EF08F0E7C18AF0E8C13C
:101040008BF0E9C18CF0EAC18DF0F751040D6D0E03
:10105000F324F66E060EF420F76E0900F5CF8EF03D
:101060000900F5CF8FF00900F5CF90F00A00F5CF19
:1010700091F0D7EC3AF08AC0E3F18BC0E4F18CC078
:10108000E5F18DC0E6F1E3C197F0E4C198F0E5C168
:1010900099F0E6C19AF00A0E00019B6F000E9C6F5A
:1010A000000E9D6F000E9E6FCBEC3BF097C0E3F1FE
:1010B00098C0E4F199C0E5F19AC0E6F10101E3516D
:1010C000300FD6C0D9FFD7C0DAFFDF6E0001D64B94
:1010D000D72BE7C197F0E8C198F0E9C199F0EAC1D0
:1010E0009AF00101F751040D6D0EF324F66E060E11
:1010F000F420F76E0900F5CF9BF00900F5CF9CF0C6
:101100000900F5CF9DF00A00F5CF9EF0CBEC3BF047
:1011100097C0E7F198C0E8F199C0E9F19AC0EAF107
:101120000101F707F729D8A498EF08F09AEF08F023
:101130001DEF08F0A9EF08F0D6C0D9FFD7C0DAFF3D
:10114000300EDF6E0001D64BD72B0101F507D8A07A
:10115000F607F551F611D8A4B0EF08F0B2EF08F099
:101160009CEF08F087EF0AF0E1C1D9FFE2C1DAFF96
:10117000DECFE7F1DDCFE8F1000EE8BFFF0EE96F4B
:10118000EA6F020EE127000EE223EABFCCEF08F07F
:10119000CAEF08F0D6EF08F0030EED13EA1FE91FBF
:1011A000E81FE76D000EE823E923EA23F551F61165
:1011B000D8A4DDEF08F0DFEF08F0ECEF08F0E7511E
:1011C000E811E911EA11D8A4E8EF08F0EAEF08F015
:1011D000ECEF08F0F54BF62B010EF76FF751040D0D
:1011E0006D0EF324F66E060EF420F76E0900F5502E
:1011F000E75D0900F550E8590900F550E959090083
:10120000F550EA59D8B007EF09F009EF09F00BEFF4
:1012100009F015EF09F0F72B0A0EF719D8A413EF10
:1012200009F015EF09F0EEEF08F0F7510001DE6F5D
:10123000DF6B0101F5510001DE5DDF51800AE06FD7
:101240000101F651800A0001E059D8B02AEF09F0F7
:101250002CEF09F030EF09F0F5C1F7F14AEF09F092
:101260000101F7510001DE6FDF6BDE510101F55D19
:10127000F651800A0001E06FDF51800AE059D8B0D2
:1012800044EF09F046EF09F04AEF09F0F7C1F5F134
:101290000101F66B0101EF51F011D8B452EF09F0E2
:1012A00054EF09F06AEF09F0030EED150001DE6F4F
:1012B000000E0101EE150001DF6FDE51DF11D8B421
:1012C00064EF09F066EF09F06AEF09F00101EF073A
:1012D000D8A0F0070101EEAD70EF09F072EF09F050
:1012E00090EF09F0EF51F55DF651800A0001DE6FD5
:1012F0000101F051800A0001DE59D8B082EF09F0F7
:1013000084EF09F08BEF09F00101F551EF5FF65121
:10131000F05B90EF09F0000E0101F06F000EEF6F2F
:10132000F7510001DE6FDF6B0101EF510001DE5D5F
:10133000DF51800AE06F0101F051800A0001E0599D
:10134000D8B0A5EF09F0A7EF09F0AEEF09F0010161
:10135000F751EF5F000EF05BB3EF09F0000E0101F3
:10136000F06F000EEF6FEDA5B8EF09F0BAEF09F0DE
:10137000F6EF09F0030EED150001DE6F000E01011E
:10138000EE150001DF6FDE51DF11D8B4CAEF09F0AE
:10139000CCEF09F0D4EF09F0D6C0D9FFD7C0DAFFFF
:1013A0002D0EDF6ED64BD72B0101EF51F011D8B4C3
:1013B000DCEF09F0DEEF09F079EF0AF0D6C0D9FFD3
:1013C000D7C0DAFF300EDF6E0001D64BD72B0101FC
:1013D000EF07D8A0F007EF51F011D8A4F2EF09F011
:1013E000F4EF09F0DEEF09F079EF0AF0EF51F011B8
:1013F000D8B4FDEF09F0FFEF09F015EF0AF0D6C001
:10140000D9FFD7C0DAFF200EDF6E0001D64BD72BF5
:101410000101EF07D8A0F007EF51F011D8A413EFA6
:101420000AF015EF0AF0FFEF09F0030EED150001C9
:10143000DE6F000E0101EE150001DF6FDE51DF11DE
:10144000D8B425EF0AF027EF0AF079EF0AF0D6C0FA
:10145000D9FFD7C0DAFF2D0EDF6E0001D64BD72B98
:1014600079EF0AF0F5C1DEF0F6C1DFF00001D890A7
:10147000DE37DF37D890DE37DF376D0EDE25F66ECC
:10148000060EDF21F76E0900F5CF8EF00900F5CFCB
:101490008FF00900F5CF90F00A00F5CF91F0E7C189
:1014A0008AF0E8C18BF0E9C18CF0EAC18DF0D7EC8D
:1014B0003AF08AC097F08BC098F08CC099F08DC03C
:1014C0009AF00A0E00019B6F000E9C6F000E9D6F3C
:1014D000000E9E6FCBEC3BF000019751300F0101E5
:1014E000F76FD6C0D9FFD7C0DAFFF7C1DFFF2DEF06
:1014F0000AF00101F507D8A0F607F52906E1F6295B
:10150000D8A485EF0AF087EF0AF032EF0AF0D8C0CE
:10151000F6FFD9C0F7FF0001D84BD92B0800F5CF53
:10152000F7F10101F751D8A498EF0AF09AEF0AF009
:1015300077EF03F0D6C0D9FFD7C0DAFF000EDF6E19
:101540001200510E5D6E000E5E6E33EF11F0250E2F
:101550007318D8B4AEEF0AF0B0EF0AF0BAEF0AF0A1
:101560004DC0D9FF4EC0DAFF73C0DFFF4D4A4E2A8F
:1015700033EF11F0000E6C6E000E6B6E000E6A6E93
:10158000000E696EC7EF0AF069844F4A502A4FC0B7
:10159000F6FF50C0F7FF0800F550300AD8B4C4EF8A
:1015A0000AF0D3EF0AF04FC0F6FF50C0F7FF080073
:1015B000F55024EC00F0D8A0E0EF0AF0E2EF0AF0DA
:1015C00019EF0BF0000E6C6E000E6B6E6BC001F02D
:1015D0006CC002F0000E046E0A0E036E53EC00F0B5
:1015E00001C06BF002C06CF0D00E556EFF0E566E4F
:1015F0004FC0F6FF50C0F7FF0800F550576E586A0D
:10160000555057265650582257506B2658506C222A
:101610004F4A502A4FC0F6FF50C0F7FF0800F55060
:1016200024EC00F0D8B017EF0BF019EF0BF0E6EF59
:101630000AF04FC0F6FF50C0F7FF0800F5502E0A21
:10164000D8A425EF0BF027EF0BF065EF0BF06A8CB9
:101650004F4A502A000E726E000E716E54EF0BF05E
:1016600071C001F072C002F0000E046E0A0E036E2B
:1016700053EC00F001C071F002C072F0D00E556E54
:10168000FF0E566E4FC0F6FF50C0F7FF0800F55032
:10169000576E586A55505726565058225750712643
:1016A000585072224F4A502A4FC0F6FF50C0F7FFE1
:1016B0000800F55024EC00F0D8B061EF0BF063EFB8
:1016C0000BF030EF0BF06FEF0BF0000E726E000EB0
:1016D000716E6A886FEF0BF06A848BEF0BF04FC06E
:1016E000F6FF50C0F7FF4F4A502A0800F5CF73F0BD
:1016F0007350000AD8B444EF11F0640AD8B48BEFE9
:101700000BF0020AD8B46CEF0BF00F0AD8B48BEFD1
:101710000BF033EF11F0070E6A14D8B492EF0BF010
:1017200094EF0BF08DEF0FF06AA899EF0BF09BEFA1
:101730000BF09FEF0BF0000E726E060E716E5DC027
:10174000D9FF5EC0DAFFDECF6DF0DECF6EF0DECF08
:101750006FF0DECF70F0040E5D26000E5E2270BECC
:10176000B6EF0BF0B4EF0BF0CAEF0BF06DC001F069
:101770006EC002F06FC003F070C004F0D0EC3FF018
:1017800001C06DF002C06EF003C06FF004C070F0D5
:10179000030E6912000E686E000E676E6DC001F0D8
:1017A0006EC002F06FC003F070C004F0000E056E52
:1017B000000E066E000E076E000E086E82EC3AF008
:1017C000D8B0E5EF0BF0E7EF0BF076EF0CF06F34ED
:1017D0007034820F676E686AFF0E68226706D8A0B1
:1017E000680667C001F068C002F0000E046E030EC8
:1017F000036E53EC00F001C067F002C068F067C0F0
:1018000007F068C008F0000E0A6E0A0E096EA9EC17
:1018100037F007C067F008C068F068BE14EF0CF03E
:1018200012EF0CF017EF0CF06706D8A068066750AF
:101830000008E2EC1EF028C05FF029C060F02AC06A
:1018400061F02BC062F05FC00FF060C010F061C0AB
:1018500011F062C012F06DC013F06EC014F06FC0D2
:1018600015F070C016F0B9EC1AF00FC05FF010C0A0
:1018700060F011C061F012C062F05FC001F060C0A2
:1018800002F061C003F062C004F0000E056E000EAD
:10189000066E800E076E3F0E086ECAEC35F0D8B0AB
:1018A00054EF0CF056EF0CF05BEF0CF06706D8A08D
:1018B000680676EF0CF05FC001F060C002F061C016
:1018C00003F062C004F0000E056E000E066E200EDE
:1018D000076E410E086ECAEC35F0D8A072EF0CF01E
:1018E00074EF0CF076EF0CF0674A682A72BE84EF52
:1018F0000CF0725007E10D0E715CD8B082EF0CF065
:1019000084EF0CF0A1EF0CF06DC035F06EC036F036
:101910006FC037F070C038F0715074EC29F028C0F7
:1019200039F029C03AF02AC03BF02BC03CF043EC20
:1019300016F035C06DF036C06EF037C06FF038C0AD
:1019400070F068BEAFEF0CF0685007E10A0E675CFC
:10195000D8B0ADEF0CF0AFEF0CF0EBEF0CF06DC0CA
:1019600001F06EC002F06FC003F070C004F0000E12
:10197000056E000E066E000E076E000E086E82ECFD
:101980003AF0D8B0C6EF0CF0C8EF0CF03DEF0DF018
:101990006DC028F06EC029F06FC02AF070C02BF027
:1019A00047EC35F0285029102A102B10D8A4DBEF73
:1019B0000CF0DDEF0CF03DEF0DF068BEE9EF0CF040
:1019C000685009E1020E675CD8A0E9EF0CF0EBEF7C
:1019D0000CF03DEF0DF05FC001F060C002F061C09F
:1019E00003F062C004F05F0E056E700E066E890E85
:1019F000076E400E086ECAEC35F0D8B002EF0DF05D
:101A000004EF0DF00AEF0DF0F70E6726FF0E6822C7
:101A10000EEF0DF0F80E6726FF0E68226750E2EC1D
:101A20001EF028C05FF029C060F02AC061F02BC012
:101A300062F06DC001F06EC002F06FC003F070C0C4
:101A400004F05FC005F060C006F061C007F062C03E
:101A500008F00FEC30F001C063F002C064F003C086
:101A600065F004C066F0000E6D6E000E6E6E000E26
:101A70006F6E000E706E78EF0DF06DC028F06EC0C6
:101A800029F06FC02AF070C02BF047EC35F028C069
:101A900063F029C064F02AC065F02BC066F06DC009
:101AA00045F06EC046F06FC047F070C048F063C0AC
:101AB00001F064C002F065C003F066C004F0000EDF
:101AC00090EC2CF001C049F002C04AF003C04BF08A
:101AD00004C04CF073EC3FF045C06DF046C06EF0B2
:101AE00047C06FF048C070F0000E686E000E676E61
:101AF000010E736E7350040D6D0EF324F66E060E18
:101B0000F420F76E0900F550635C0900F550645845
:101B10000900F55065580900F5506658D8B093EFA4
:101B20000DF095EF0DF097EF0DF0A1EF0DF0732A8A
:101B30000A0E7318D8A49FEF0DF0A1EF0DF07AEF05
:101B40000DF073507124556E000E7220566E675062
:101B500055266850562255506B5E56506C5A71503F
:101B60007210D8B4B6EF0DF0B8EF0DF0BBEF0DF07A
:101B70006B06D8A06C06030E6914556E000E6A142D
:101B8000566E55505610D8B4C8EF0DF0CAEF0DF090
:101B9000CDEF0DF06B06D8A06C0669A4D2EF0DF066
:101BA000D4EF0DF012EF0EF0030E6914556E000E17
:101BB0006A14566E55505610D8B4E1EF0DF0E3EFAD
:101BC0000DF0F8EF0DF04DC0D9FF4EC0DAFF2D0E2D
:101BD000DF6E4D4A4E2AF8EF0DF04DC0D9FF4EC0D2
:101BE000DAFF300EDF6E4D4A4E2A6B06D8A06C0627
:101BF0006CBE05EF0EF06C5006E16B04D8B003EF3D
:101C00000EF005EF0EF0EDEF0DF081EF0EF04DC090
:101C1000D9FF4EC0DAFF200EDF6E4D4A4E2A6B060A
:101C2000D8A06C066CBE1FEF0EF06C5006E16B0482
:101C3000D8B01DEF0EF01FEF0EF007EF0EF0030E01
:101C40006914556E000E6A14566E55505610D8B46D
:101C50002CEF0EF02EEF0EF081EF0EF04DC0D9FFFD
:101C60004EC0DAFF2D0EDF6E4D4A4E2A81EF0EF088
:101C700063C001F064C002F065C003F066C004F008
:101C80007350040D6D0EF324F66E060EF420F76EFD
:101C90000900F5CF05F00900F5CF06F00900F5CFF2
:101CA00007F00A00F5CF08F02AEC3BF001C05FF026
:101CB00002C060F003C061F004C062F05FC00EF0CB
:101CC00060C00FF061C010F062C011F00A0E126E19
:101CD000000E136E000E146E000E156E10EC3CF02C
:101CE0000EC05FF00FC060F010C061F011C062F074
:101CF0005F50300F4DC0D9FF4EC0DAFFDF6E34EFBA
:101D00000EF073067328D8A488EF0EF08AEF0EF059
:101D100038EF0EF097EF0EF04DC0D9FF4EC0DAFF4E
:101D2000300EDF6E4D4A4E2A6706D8A0680668BEA0
:101D3000A4EF0EF0685006E16704D8B0A2EF0EF0F1
:101D4000A4EF0EF08CEF0EF072BEB0EF0EF07250FA
:101D500009E1090E715CD8A0B0EF0EF0B2EF0EF001
:101D6000B6EF0EF0080E736EB8EF0EF071C073F0A0
:101D70007350715E000E725A7350D8B4C2EF0EF0F9
:101D8000C4EF0EF0CCEF0EF04DC0D9FF4EC0DAFF1D
:101D90002E0EDF6E4D4A4E2A7350E2EC1EF028C024
:101DA00059F029C05AF02AC05BF02BC05CF06DC01E
:101DB00013F06EC014F06FC015F070C016F059C06B
:101DC0000FF05AC010F05BC011F05CC012F0B9EC1B
:101DD0001AF00FC028F010C029F011C02AF012C06C
:101DE0002BF047EC35F028C063F029C064F02AC01E
:101DF00065F02BC066F06CEF0FF063C001F064C0BB
:101E000002F065C003F066C004F07350040D6D0E5F
:101E1000F324F66E060EF420F76E0900F5CF05F0F8
:101E20000900F5CF06F00900F5CF07F00A00F5CF5D
:101E300008F02AEC3BF001C05FF002C060F003C084
:101E400061F004C062F05FC00EF060C00FF061C0CE
:101E500010F062C011F00A0E126E000E136E000E2A
:101E6000146E000E156E10EC3CF00EC05FF00FC04B
:101E700060F010C061F011C062F05F50300F4DC0D3
:101E8000D9FF4EC0DAFFDF6E4D4A4E2A63C00EF016
:101E900064C00FF065C010F066C011F07350040DFF
:101EA0006D0EF324F66E060EF420F76E0900F5CFE2
:101EB00012F00900F5CF13F00900F5CF14F00A0075
:101EC000F5CF15F010EC3CF00EC063F00FC064F0DD
:101ED00010C065F011C066F073067328D8A473EFC4
:101EE0000FF075EF0FF0FDEF0EF082EF0FF04DC029
:101EF000D9FF4EC0DAFF300EDF6E4D4A4E2A710612
:101F0000D8A0720671507210D8A489EF0FF08BEF31
:101F10000FF077EF0FF033EF11F05DC0D9FF5EC027
:101F2000DAFFDECF63F0DDCF64F0000E64BEFF0E9B
:101F3000656E666E020E5D26000E5E2266BEA5EF21
:101F40000FF0A3EF0FF0AFEF0FF0030E6912661E54
:101F5000651E641E636C000E642265226622715049
:101F60007210D8A4B6EF0FF0B8EF0FF0C5EF0FF076
:101F70006350641065106610D8A4C1EF0FF0C3EF72
:101F80000FF0C5EF0FF0714A722A010E736E735095
:101F9000040D6D0EF324F66E060EF420F76E0900A4
:101FA000F550635C0900F55064580900F550655818
:101FB0000900F5506658D8B0E0EF0FF0E2EF0FF0EF
:101FC000E4EF0FF0EEEF0FF0732A0A0E7318D8A4A7
:101FD000ECEF0FF0EEEF0FF0C7EF0FF07350556E10
:101FE000566A7150555C5650800A576E7250800A7E
:101FF0005758D8B0FEEF0FF000EF10F004EF10F0DC
:1020000071C073F019EF10F07350556E566A555049
:10201000715C7250800A576E5650800A5758D8B07B
:1020200014EF10F016EF10F019EF10F073C071F00C
:10203000726A6B506C10D8B420EF10F022EF10F0E1
:1020400034EF10F0030E6914556E000E6A14566ECC
:1020500055505610D8B42FEF10F031EF10F034EF88
:1020600010F06B06D8A06C066AAC39EF10F03BEFAD
:1020700010F054EF10F06B50715C7250800A556E86
:102080006C50800A5558D8B048EF10F04AEF10F065
:1020900050EF10F071506B5E72506C5A54EF10F0AC
:1020A000000E6C6E000E6B6E7350556E566A6B5060
:1020B000555C5650800A576E6C50800A5758D8B0FD
:1020C00064EF10F066EF10F06CEF10F073506B5E81
:1020D000000E6C5A70EF10F0000E6C6E000E6B6EFE
:1020E00069A475EF10F077EF10F0ADEF10F0030E6C
:1020F0006914556E000E6A14566E55505610D8B4B9
:1021000084EF10F086EF10F08EEF10F04DC0D9FF85
:102110004EC0DAFF2D0EDF6E4D4A4E2A6B506C100A
:10212000D8B495EF10F097EF10F026EF11F04DC0F6
:10213000D9FF4EC0DAFF300EDF6E4D4A4E2A6B06D5
:10214000D8A06C066B506C10D8A4A9EF10F0ABEFC0
:1021500010F097EF10F026EF11F06B506C10D8B420
:10216000B4EF10F0B6EF10F0CAEF10F04DC0D9FF89
:102170004EC0DAFF200EDF6E4D4A4E2A6B06D8A005
:102180006C066B506C10D8A4C8EF10F0CAEF10F0BA
:10219000B6EF10F0030E6914556E000E6A14566EF9
:1021A00055505610D8B4D7EF10F0D9EF10F026EFF5
:1021B00011F04DC0D9FF4EC0DAFF2D0EDF6E4D4A33
:1021C0004E2A26EF11F071C055F072C056F0D8902B
:1021D00055365636D890553656366D0E5524F66E11
:1021E000060E5620F76E0900F5CF05F00900F5CF71
:1021F00006F00900F5CF07F00A00F5CF08F063C03C
:1022000001F064C002F065C003F066C004F02AEC7F
:102210003BF001C00EF002C00FF003C010F004C08C
:1022200011F00A0E126E000E136E000E146E000EE8
:10223000156E10EC3CF00E50300F736E4DC0D9FF90
:102240004EC0DAFF73C0DFFFDFEF10F07106D8A0D9
:102250007206712806E17228D8A431EF11F033EF2D
:1022600011F0E3EF10F04FC0F6FF50C0F7FF4F4AF8
:10227000502A0800F5CF73F07350D8A442EF11F044
:1022800044EF11F0A7EF0AF04DC0D9FF4EC0DAFFBE
:10229000000EDF6E1200000EC26E000EC16EF18ED7
:1022A000830ECD6E000ECE6E000ECF6E030E0001BB
:1022B000996FE80E986FCBEC36F03DEC00F0E00E35
:1022C000F26E800EF16E9268000E936E800E946E28
:1022D0000F0E956E010E966E000E806E000E896ECA
:1022E00081688A68000E826E000E8B6E0F0E836E00
:1022F0000F0E8C6E000E846E000E8D6EF19CF292AD
:10230000F288F294F28AC50ED56E000ED76E830E57
:10231000D66EF28E8DEC00F0EFEC31F077EC00F041
:10232000000E0001F16F020EF06FF0C092F0F1C0EC
:1023300093F0C1EC2EF0F00E0101F86F000EF96F72
:10234000E8EC20F00400000E00018B6F0A0E8A6F8B
:102350007CEC3BF00001E26FE2510201386F396B17
:10236000D90E0001D66F010ED76FCD0ED86F060EB5
:10237000D96F38C2DAF039C2DBF070EC03F058ECF8
:102380003DF019EC3DF097EC3CF0050E0001906F2C
:10239000DC0E8F6FC5EC2AF0300F0001EF6F310EAD
:1023A000EF19D8B4D6EF11F0D8EF11F0E3EF11F038
:1023B000310E020138193911D8A4E1EF11F0E3EF21
:1023C00011F0F5EF11F0000E0001F16F010EF06F4A
:1023D000F0C092F0F1C093F0C1EC2EF0F00E0101CC
:1023E000F86F000EF96FE8EC20F0320E0001EF19E3
:1023F000D8B4FDEF11F0FFEF11F00AEF12F0320E3A
:10240000020138193911D8A408EF12F00AEF12F0BE
:102410001EEF12F0000E0001F16F020EF06FF0C01F
:1024200092F0F1C093F0C1EC2EF0F00E0101F86FC4
:10243000000EF96FE8EC20F0C9EF12F0330E000146
:10244000EF19D8B426EF12F028EF12F033EF12F0A4
:10245000330E020138193911D8A431EF12F033EFDD
:1024600012F03AEF12F0000E0001F16F030EF06F60
:102470000FEF12F0340E0001EF19D8B442EF12F052
:1024800044EF12F04FEF12F0340E020138193911F7
:10249000D8A44DEF12F04FEF12F06BEF12F00A0ECE
:1024A0000001ED25ED6F000EEE21EE6FEE5109E11A
:1024B000650EED5DD8A05FEF12F061EF12F065EFF1
:1024C00012F0000EEE6F000EED6F000EF16F010EB8
:1024D000F06F0FEF12F0350E0001EF19D8B473EF63
:1024E00012F075EF12F080EF12F0350E020138197C
:1024F0003911D8A47EEF12F080EF12F098EF12F0AD
:102500000A0E0001EB25EB6F000EEC21EC6FEC5195
:1025100009E1650EEB5DD8A090EF12F092EF12F09A
:1025200065EF12F0000EEC6F000EEB6F65EF12F02E
:10253000390E0001EF19D8B4A0EF12F0A2EF12F09B
:10254000ADEF12F0390E020138193911D8A4ABEFF2
:1025500012F0ADEF12F0C9EF12F0010E0001F225FA
:10256000F26F000EF321F36FF35109E1020EF25DF9
:10257000D8A0BDEF12F0BFEF12F0C9EF12F0000EBD
:10258000F36F000EF26F000EF16F020EF06F0FEF9F
:1025900012F00001F251F311D8A4D1EF12F0D3EFF1
:1025A00012F05CEF13F0E7C08AF0E8C08BF0E9C0EE
:1025B0008CF0EAC08DF0330E8E6F330E8F6FB30E3A
:1025C000906F3F0E916FC4EC34F00001D8A0EBEF98
:1025D00012F0EDEF12F017EF13F0000E8A6F000EFD
:1025E0008B6F400E8C6F400E8D6FE3C08EF0E4C099
:1025F0008FF0E5C090F0E6C091F0C4EC34F000013B
:10260000D8A005EF13F007EF13F017EF13F0F45114
:10261000F511D8A40EEF13F010EF13F017EF13F02D
:102620008280000EF56F010EF46F5CEF13F0000E68
:102630008A6F000E8B6F800E8C6F3F0E8D6FE7C020
:102640008EF0E8C08FF0E9C090F0EAC091F0C4ECE1
:1026500034F00001D8B02FEF13F031EF13F04BEF4F
:1026600013F0330E8A6F330E8B6F930E8C6F400E08
:102670008D6FE3C08EF0E4C08FF0E5C090F0E6C04F
:1026800091F0C4EC34F00001D8A049EF13F04BEF07
:1026900013F057EF13F0F405F511D8A452EF13F02F
:1026A00054EF13F057EF13F082805CEF13F0829039
:1026B000000EF56F000EF46FF205F311D8A463EF6E
:1026C00013F065EF13F0ADEF13F0050E906FDC0E15
:1026D0008F6FC5EC2AF0300F0001EF6F360EEF1947
:1026E000D8B475EF13F077EF13F082EF13F0360ED6
:1026F000020138193911D8A480EF13F082EF13F0DA
:10270000ADEF13F082A087EF13F08CEF13F0000110
:10271000E26BE22B8EEF13F00001E26B8250E219C4
:10272000FE0BE219826E82B098EF13F09AEF13F06D
:10273000A0EF13F0000EF56F000EF46FADEF13F085
:1027400082A0A5EF13F0A7EF13F0ADEF13F0000E8A
:10275000F56F010EF46FADEF13F0020E0001F219E8
:10276000F311D8A4B6EF13F0B8EF13F0A2EF11F005
:1027700058EC3DF019EC3DF097EC3CF082900101F3
:10278000BD05BE11D8A4C7EF13F0C9EF13F0A2EF37
:1027900011F0000E0001F36F010EF26F000EF56FE5
:1027A000000EF46F000E0101BE6F000EBD6F000E33
:1027B0000001936F020E926FC1EC2EF0A2EF11F0A8
:1027C00007EF00F00001C151800BCA6FC151C12554
:1027D000CC6FC0AFEEEF13F0F0EF13F0F1EF13F0AA
:1027E000CC81CC51D8B4F7EF13F0F9EF13F00EEF22
:1027F00014F0CC29D8A4FFEF13F001EF14F009EF87
:1028000014F0000EBE6F000EBF6F000EC06F000E02
:10281000C16FC08F000EC16F16EF14F0000EBE6FB7
:10282000000EBF6F000EC06F000EC16FC551800B50
:10283000CB6FCA51CB19D8B420EF14F022EF14F0AB
:1028400023EF14F0CA8DC551C525CB6FC4AF2BEF54
:1028500014F02DEF14F02EEF14F0CB81CB51D8B43F
:1028600034EF14F036EF14F04BEF14F0CB29D8A46A
:102870003CEF14F03EEF14F046EF14F0000EC26F80
:10288000000EC36F000EC46F000EC56FC48F000E24
:10289000C56F53EF14F0000EC26F000EC36F000E31
:1028A000C46F000EC56FCC51CB5DD8B05AEF14F099
:1028B0005CEF14F083EF14F0CAAD61EF14F063EF36
:1028C00014F065EF14F0800ECA1BCCC0CDF0CBC065
:1028D000CCF0CDC0CBF0BEC0CDF0C2C0BEF0CDC0FC
:1028E000C2F0BFC0CDF0C3C0BFF0CDC0C3F0C0C008
:1028F000CDF0C4C0C0F0CDC0C4F0C1C0CDF0C5C0E3
:10290000C1F0CDC0C5F0000ECD6FCC51CBC0C6F02C
:10291000C76BC65F000EC75BC7BF98EF14F0C75107
:1029200009E11A0EC65DD8A098EF14F09AEF14F0E2
:10293000D1EF14F0BE51BF11C011C111D8A4A3EF43
:1029400014F0A6EF14F0010EA7EF14F0000ECD6FF7
:10295000000EBE6F000EBF6F000EC06F000EC16F85
:10296000CBC0CCF0DAEF14F0CDA1B9EF14F0BBEF8F
:1029700014F0C1EF14F0D890CD310109CD6FC3EF41
:1029800014F0D890CD33BEA1C8EF14F0CAEF14F004
:10299000CBEF14F0CD8FC135C133C033BF33BE335D
:1029A000CC2BCB51CC5DD8A0D8EF14F0DAEF14F0DB
:1029B000B4EF14F0CABDDFEF14F0E1EF14F021EF33
:1029C00015F0CC51D8A4E7EF14F0E9EF14F0F3EFD1
:1029D00014F0000EBE6F000EBF6F000EC06F000E31
:1029E000C16F42EF16F0C251BE27C351BF23C4517D
:1029F000C023C551C123C1A100EF15F002EF15F0AE
:102A0000AEEF15F0CDA107EF15F009EF15F00FEFC0
:102A100015F0D890CD310109CD6F11EF15F0D89098
:102A2000CD33BEA116EF15F018EF15F019EF15F024
:102A3000CD8FC135C133C033BF33BE33CC2BAEEFE6
:102A400015F0C251BE5DC351BF59C451C059C151E7
:102A5000800AC66FC551800AC659D8B032EF15F04A
:102A600034EF15F05FEF15F0BE51C25DC66FBF5178
:102A7000C359C76FC051C459C86FC151C559C96F37
:102A8000FF0EC625BE6FFF0EC721BF6FFF0EC82108
:102A9000C06FFF0EC921C16F800ECA1BCD6DCD5115
:102AA000D8A455EF15F057EF15F067EF15F0010EAC
:102AB000BE27000EBF23C023C12367EF15F0C2510C
:102AC000BE5FC351BF5BC451C05BC551C15BBE514A
:102AD000BF11C011C111D8A470EF15F072EF15F03D
:102AE000A7EF15F0CD51D8A478EF15F07AEF15F0D7
:102AF000A7EF15F0000EBE6F000EBF6F000EC06F87
:102B0000000EC16F42EF16F0D890BE37BF37C03706
:102B1000C137CDAF8EEF15F090EF15F091EF15F0B6
:102B2000BE81CDA196EF15F098EF15F09CEF15F052
:102B3000D880CD379EEF15F0D890CD37CC51D8B492
:102B4000A4EF15F0A6EF15F0A7EF15F0CC07C0AF76
:102B5000ACEF15F0AEEF15F084EF15F0000ECB6F73
:102B6000CDAFB5EF15F0B7EF15F0CFEF15F0CDC045
:102B7000C6F07F0EC617D8B4C0EF15F0C2EF15F03F
:102B8000C6EF15F0010ECB6FCFEF15F0BEA1CBEF66
:102B900015F0CDEF15F0CFEF15F0C2EF15F0CB51DA
:102BA000D8B4D5EF15F0D7EF15F002EF16F0010EFF
:102BB000BE27000EBF23C023C123C1A1E2EF15F041
:102BC000E4EF15F002EF16F0BEC0C6F0BFC0C7F0CC
:102BD000C0C0C8F0C1C0C9F0C935C933C833C73394
:102BE000C633C6C0BEF0C7C0BFF0C8C0C0F0C9C0C1
:102BF000C1F0CC29D8B4FFEF15F001EF16F002EFC9
:102C000016F0CC2BCC29D8B408EF16F00AEF16F04A
:102C100012EF16F0CC51D8A410EF16F012EF16F008
:102C200024EF16F0000EBE6F000EBF6F000EC06FD7
:102C3000000EC16FCC51D8A420EF16F022EF16F091
:102C400024EF16F0000ECA6FCCA129EF16F02BEF7F
:102C500016F02EEF16F0C08F2FEF16F0C09FD89011
:102C6000CC31C16FCAAF37EF16F039EF16F03AEF3B
:102C700016F0C18FBEC0BEF0BFC0BFF0C0C0C0F074
:102C8000C1C0C1F012003850800B416E385038245A
:102C9000436E37AE4EEF16F050EF16F051EF16F0D0
:102CA00043804350D8B457EF16F059EF16F06EEF4B
:102CB00016F04328D8A45FEF16F061EF16F069EF25
:102CC00016F0000E356E000E366E000E376E000EDA
:102CD000386E378E000E386E76EF16F0000E356EB9
:102CE000000E366E000E376E000E386E3C50800BB4
:102CF000426E41504218D8B480EF16F082EF16F0C1
:102D000083EF16F0418C3C503C24426E3BAE8BEF7F
:102D100016F08DEF16F08EEF16F042804250D8B4C8
:102D200094EF16F096EF16F0ABEF16F04228D8A409
:102D30009CEF16F09EEF16F0A6EF16F0000E396E1F
:102D4000000E3A6E000E3B6E000E3C6E3B8E000E87
:102D50003C6EB3EF16F0000E396E000E3A6E000EA8
:102D60003B6E000E3C6E4350425CD8B0BAEF16F09A
:102D7000BCEF16F0E3EF16F041ACC1EF16F0C3EF75
:102D800016F0C5EF16F0800E411A43C044F042C061
:102D900043F044C042F035C044F039C035F044C07F
:102DA00039F036C044F03AC036F044C03AF037C08B
:102DB00044F03BC037F044C03BF038C044F03CC066
:102DC00038F044C03CF0000E446E435042C03DF029
:102DD0003E6A3D5E000E3E5A3EBEF8EF16F03E5093
:102DE00009E11A0E3D5CD8A0F8EF16F0FAEF16F0E4
:102DF00031EF17F03550361037103810D8A403EFE4
:102E000017F006EF17F0010E07EF17F0000E446EF3
:102E1000000E356E000E366E000E376E000E386EE8
:102E200042C043F03AEF17F044A019EF17F01BEF40
:102E300017F021EF17F0D89044300109446E23EFCA
:102E400017F0D890443235A028EF17F02AEF17F08A
:102E50002BEF17F0448E3834383237323632353271
:102E6000432A4250435CD8A038EF17F03AEF17F0EE
:102E700014EF17F041BC3FEF17F041EF17F081EF6F
:102E800017F04350D8A447EF17F049EF17F053EF6E
:102E900017F0000E356E000E366E000E376E000E07
:102EA000386EA2EF18F0395035263A5036223B5092
:102EB00037223C50382238A060EF17F062EF17F04D
:102EC0000EEF18F044A067EF17F069EF17F06FEFFF
:102ED00017F0D89044300109446E71EF17F0D89084
:102EE000443235A076EF17F078EF17F079EF17F04E
:102EF000448E38343832373236323532432A0EEF88
:102F000018F03950355C3A5036583B5037583850E5
:102F1000800A3D6E3C50800A3D58D8B092EF17F0C1
:102F200094EF17F0BFEF17F03550395C3D6E365017
:102F30003A583E6E37503B583F6E38503C58406EC2
:102F4000FF0E3D24356EFF0E3E20366EFF0E3F20F5
:102F5000376EFF0E4020386E800E411A446C44508C
:102F6000D8A4B5EF17F0B7EF17F0C7EF17F0010EC1
:102F70003526000E362237223822C7EF17F0395097
:102F8000355E3A50365A3B50375A3C50385A3550D5
:102F9000361037103810D8A4D0EF17F0D2EF17F052
:102FA00007EF18F04450D8A4D8EF17F0DAEF17F075
:102FB00007EF18F0000E356E000E366E000E376EFD
:102FC000000E386EA2EF18F0D89035363636373608
:102FD000383644AEEEEF17F0F0EF17F0F1EF17F0E0
:102FE000358044A0F6EF17F0F8EF17F0FCEF17F07C
:102FF000D8804436FEEF17F0D89044364350D8B40A
:1030000004EF18F006EF18F007EF18F0430637AE9C
:103010000CEF18F00EEF18F0E4EF17F0000E426E10
:1030200044AE15EF18F017EF18F02FEF18F044C06A
:103030003DF07F0E3D16D8B420EF18F022EF18F0C7
:1030400026EF18F0010E426E2FEF18F035A02BEF8F
:1030500018F02DEF18F02FEF18F022EF18F0425073
:10306000D8B435EF18F037EF18F062EF18F0010E12
:103070003526000E36223722382238A042EF18F0CB
:1030800044EF18F062EF18F035C03DF036C03EF066
:1030900037C03FF038C040F0403440323F323E321B
:1030A0003D323DC035F03EC036F03FC037F040C045
:1030B00038F04328D8B45FEF18F061EF18F062EFF2
:1030C00018F0432A4328D8B468EF18F06AEF18F0D4
:1030D00072EF18F04350D8A470EF18F072EF18F0A8
:1030E00084EF18F0000E356E000E366E000E376E4F
:1030F000000E386E4350D8A480EF18F082EF18F01D
:1031000084EF18F0000E416E43A089EF18F08BEFAA
:1031100018F08EEF18F0378E8FEF18F0379ED8909A
:103120004330386E41AE97EF18F099EF18F09AEFF0
:1031300018F0388E35C035F036C036F037C037F06D
:1031400038C038F0120000019B51800BA46F9B51D6
:103150009B25AA6F9AAFAFEF18F0B1EF18F0B2EF5E
:1031600018F0AA81AA51D8B4B8EF18F0BAEF18F045
:10317000CDEF18F0AA29D8A4C0EF18F0C2EF18F0CC
:10318000CAEF18F0000E986F000E996F000E9A6F3C
:10319000000E9B6F9A8FD5EF18F0000E986F000EFF
:1031A000996F000E9A6F000E9B6F9F51800BA41BAE
:1031B0009F519F25A56F9EAFE0EF18F0E2EF18F04A
:1031C000E3EF18F0A581A551D8B4E9EF18F0EBEFC3
:1031D00018F0FEEF18F0A529D8A4F1EF18F0F3EFDE
:1031E00018F0FBEF18F0000E9C6F000E9D6F000EA4
:1031F0009E6F000E9F6F9E8F06EF19F0000E9C6F62
:10320000000E9D6F000E9E6F000E9F6FA551D8B4EB
:103210000CEF19F00EEF19F016EF19F0AA51D8A41F
:1032200014EF19F016EF19F020EF19F0000E986F57
:10323000000E996F000E9A6F000E9B6FB8EF1AF098
:103240009E519803F3CFAFF0F4CFB0F0AF51A66F1B
:10325000A76BA86BA96BB051AB6FAC6BAD6BAE6BD2
:103260009D519903F3CFAFF0F4CFB0F0AF51A62743
:10327000000EA723A823A923B051AB27000EAC232F
:10328000AD23AE239C519A03F3CFAFF0F4CFB0F04F
:10329000AF51A627000EA723A823A923B051AB271F
:1032A000000EAC23AD23AE23A8C0A9F0A7C0A8F0A0
:1032B000A6C0A7F0A66B9C519903F3CFAFF0F4CF53
:1032C000B0F0AF51A627B051A723000EA823000EDF
:1032D000A9239D519803F3CFAFF0F4CFB0F0AF51D5
:1032E000A627B051A723000EA823000EA923A8C02B
:1032F000A9F0A7C0A8F0A6C0A7F0A66B9C519803A0
:10330000F3CFAFF0F4CFB0F0AF51A627B051A72361
:10331000000EA823000EA9239E519903F3CFAFF00E
:10332000F4CFB0F0AF51AB27B051AC23000EAD23BA
:10333000000EAE239D519A03F3CFAFF0F4CFB0F05F
:10334000AF51AB27B051AC23000EAD23000EAE231E
:103350009E519A03F3CFAFF0F4CFB0F0AF51A06F0E
:10336000B051A16FA26BA36BA2C0A3F0A1C0A2F049
:10337000A0C0A1F0A06BA051AB27A151AC23A251DA
:10338000AD23A351AE23A6C0A0F0A7C0A1F0A8C052
:10339000A2F0A9C0A3F0190ED3EF19F0D890A3336F
:1033A000A233A133A033E82ECEEF19F0A051AB2702
:1033B000A151AC23A251AD23A351AE23A8C0A9F0C3
:1033C000A7C0A8F0A6C0A7F0A66BA551AAC0A0F000
:1033D000A16BA027000EA123820EA025AF6FFF0EC8
:1033E000A121B06F09EF1AF0D890AB37AC37AD37E9
:1033F000AE37A9AFFEEF19F000EF1AF001EF1AF0A7
:10340000AB81D890A637A737A837A937AF07D8A080
:10341000B007ADAF0EEF1AF010EF1AF0F4EF19F09D
:10342000000EA56FA9AF17EF1AF019EF1AF03DEFD4
:103430001AF0FF0EA615A06FFF0EA715A16FFF0EC5
:10344000A815A26F7F0EA915A36FA051A111A211FB
:10345000A311D8B42EEF1AF030EF1AF034EF1AF0AF
:10346000010EA56F3DEF1AF0ABA139EF1AF03BEF5B
:103470001AF03DEF1AF030EF1AF0A551D8B443EF2F
:103480001AF045EF1AF069EF1AF0010EAB27000EA3
:10349000AC23AD23AE23AEA150EF1AF052EF1AF0D9
:1034A00069EF1AF0ABC0A0F0ACC0A1F0ADC0A2F0C3
:1034B000AEC0A3F0A335A333A233A133A033A0C081
:1034C000ABF0A1C0ACF0A2C0ADF0A3C0AEF0AF4B6A
:1034D000B02BB0BF74EF1AF0B05108E1AF29D8A0FB
:1034E00074EF1AF076EF1AF080EF1AF0000EAB6F5F
:1034F000000EAC6F800EAD6F7F0EAE6FAEEF1AF0A8
:10350000B0BF8DEF1AF0B05106E1AF05D8B08BEF28
:103510001AF08DEF1AF099EF1AF0000EAB6F000E53
:10352000AC6F000EAD6F000EAE6F000EA46FAEEF6D
:103530001AF0AFC0AAF0FF0EAB17FF0EAC177F0E4C
:10354000AD17000EAE17AAA1A8EF1AF0AAEF1AF055
:10355000ABEF1AF0AD8FD890AA31AE6FA451AE1375
:10356000ABC098F0ACC099F0ADC09AF0AEC09BF083
:1035700012001250800B1B6E12501224216E11AEDD
:10358000C4EF1AF0C6EF1AF0C7EF1AF021802150ED
:10359000D8B4CDEF1AF0CFEF1AF0E2EF1AF02128ED
:1035A000D8A4D5EF1AF0D7EF1AF0DFEF1AF0000E1B
:1035B0000F6E000E106E000E116E000E126E118E48
:1035C000EAEF1AF0000E0F6E000E106E000E116E74
:1035D000000E126E1650800B1B1A16501624206E09
:1035E00015AEF5EF1AF0F7EF1AF0F8EF1AF02080A9
:1035F0002050D8B4FEEF1AF000EF1BF013EF1BF0D1
:103600002028D8A406EF1BF008EF1BF010EF1BF0EA
:10361000000E136E000E146E000E156E000E166E68
:10362000158E1BEF1BF0000E136E000E146E000EB5
:10363000156E000E166E2050D8B421EF1BF023EF4C
:103640001BF02BEF1BF02150D8A429EF1BF02BEF20
:103650001BF035EF1BF0000E0F6E000E106E000E0B
:10366000116E000E126ECDEF1CF015500F02F3CF4D
:1036700026F0F4CF27F026501C6E1D6A1E6A1F6AC2
:103680002750226E236A246A256A14501002F3CF51
:1036900026F0F4CF27F026501C26000E1D221E22F5
:1036A0001F2227502226000E2322242225221350D7
:1036B0001102F3CF26F0F4CF27F026501C26000E7F
:1036C0001D221E221F2227502226000E23222422E2
:1036D00025221EC01FF01DC01EF01CC01DF01C6A5C
:1036E00013501002F3CF26F0F4CF27F026501C26FB
:1036F00027501D22000E1E22000E1F2214500F0202
:10370000F3CF26F0F4CF27F026501C2627501D2299
:10371000000E1E22000E1F221EC01FF01DC01EF034
:103720001CC01DF01C6A13500F02F3CF26F0F4CF1B
:1037300027F026501C2627501D22000E1E22000EA8
:103740001F2215501002F3CF26F0F4CF27F0265099
:10375000222627502322000E2422000E2522145058
:103760001102F3CF26F0F4CF27F02650222627505F
:103770002322000E2422000E252215501102F3CF21
:1037800026F0F4CF27F02650176E2750186E196ACE
:103790001A6A19C01AF018C019F017C018F0176A81
:1037A0001750222618502322195024221A5025225D
:1037B0001CC017F01DC018F01EC019F01FC01AF071
:1037C000190EE8EF1BF0D8901A321932183217325E
:1037D000E82EE3EF1BF01750222618502322195031
:1037E00024221A5025221EC01FF01DC01EF01CC02E
:1037F0001DF01C6A205021C017F0186A1726000E11
:103800001822820E1724266EFF0E1820276E1EEF38
:103810001CF0D89022362336243625361FAE13EFFF
:103820001CF015EF1CF016EF1CF02280D8901C360F
:103830001D361E361F362606D8A0270624AE23EFD7
:103840001CF025EF1CF009EF1CF0000E206E1FAEDF
:103850002CEF1CF02EEF1CF052EF1CF0FF0E1C148E
:10386000176EFF0E1D14186EFF0E1E14196E7F0EBC
:103870001F141A6E1750181019101A10D8B443EFED
:103880001CF045EF1CF049EF1CF0010E206E52EFCA
:103890001CF022A04EEF1CF050EF1CF052EF1CF079
:1038A00045EF1CF02050D8B458EF1CF05AEF1CF034
:1038B0007EEF1CF0010E2226000E23222422252258
:1038C00025A065EF1CF067EF1CF07EEF1CF022C016
:1038D00017F023C018F024C019F025C01AF01A34CC
:1038E0001A3219321832173217C022F018C023F0DA
:1038F00019C024F01AC025F0264A272A27BE89EFCE
:103900001CF0275008E12628D8A089EF1CF08BEF87
:103910001CF095EF1CF0000E226E000E236E800E40
:10392000246E7F0E256EC3EF1CF027BEA2EF1CF0A5
:10393000275006E12604D8B0A0EF1CF0A2EF1CF03F
:10394000AEEF1CF0000E226E000E236E000E246EF1
:10395000000E256E000E1B6EC3EF1CF026C021F07A
:10396000FF0E2216FF0E23167F0E2416000E2516BC
:1039700021A0BDEF1CF0BFEF1CF0C0EF1CF0248EA7
:10398000D8902130256E1B50251222C00FF023C085
:1039900010F024C011F025C012F012000001B96F20
:1039A0000001B9BFD8EF1CF0D6EF1CF0DEEF1DF020
:1039B000B96DB951800A120FD8A0E1EF1CF0E3EF06
:1039C0001CF070EF1DF0000E936F0A0E926F000E48
:1039D0008D6F640E8C6FB9518A6F8B6B8ABF8B07AA
:1039E00023EC39F08AC090F08BC091F046EC37F0B0
:1039F000090E000190279051040D350EF324F66E48
:103A0000060EF420F76E0900F5CF9CF00900F5CF03
:103A10009DF00900F5CF9EF00A00F5CF9FF0000E53
:103A2000936F640E926FB951906F916B90BF910735
:103A300046EC37F0120E000190279051040D350E20
:103A4000F324F66E060EF420F76E0900F5CF98F019
:103A50000900F5CF99F00900F5CF9AF00A00F5CFEB
:103A60009BF0A3EC18F098C0B5F099C0B6F09AC0DE
:103A7000B7F09BC0B8F0B5C098F0B6C099F0B7C029
:103A80009AF0B8C09BF0000E00018D6F0A0E8C6F8B
:103A9000B9518A6F8B6B8ABF8B0723EC39F0000119
:103AA0008A51040D350EF324F66E060EF420F76EDF
:103AB0000900F5CF9CF00900F5CF9DF00900F5CF86
:103AC0009EF00A00F5CF9FF0A3EC18F098C0B1F07B
:103AD00099C0B2F09AC0B3F09BC0B4F0E1EF1EF011
:103AE000B951800A750FD8A078EF1DF07AEF1DF05C
:103AF000C8EF1DF0000E936F0A0E926FB951906FD0
:103B0000916B90BF910746EC37F0090E00019027AA
:103B10009051040D350EF324F66E060EF420F76E68
:103B20000900F5CF98F00900F5CF99F00900F5CF1D
:103B30009AF00A00F5CF9BF0000E8D6F0A0E8C6F85
:103B4000B9518A6F8B6B8ABF8B0723EC39F0000168
:103B50008A51040D350EF324F66E060EF420F76E2E
:103B60000900F5CF9CF00900F5CF9DF00900F5CFD5
:103B70009EF00A00F5CF9FF0A3EC18F098C0B1F0CA
:103B800099C0B2F09AC0B3F09BC0B4F0E1EF1EF060
:103B9000B951040D350EF324F66E060EF420F76EBF
:103BA0000900F5CFB1F00900F5CFB2F00900F5CF6B
:103BB000B3F00A00F5CFB4F0E1EF1EF0B951800A7E
:103BC000120FD8A0E6EF1DF0E8EF1DF075EF1EF024
:103BD000000E936F0A0E926F000E8D6F640E8C6F45
:103BE000B9518A6F8B6B8ABF8B0723EC39F08AC07F
:103BF00090F08BC091F046EC37F0090E0001902751
:103C00009051040D010EF324F66E060EF420F76EAB
:103C10000900F5CF9CF00900F5CF9DF00900F5CF24
:103C20009EF00A00F5CF9FF0000E936F640E926F26
:103C3000B951906F916B90BF910746EC37F0120E1F
:103C4000000190279051040D010EF324F66E060E2C
:103C5000F420F76E0900F5CF98F00900F5CF99F040
:103C60000900F5CF9AF00A00F5CF9BF0A3EC18F00D
:103C700098C0B5F099C0B6F09AC0B7F09BC0B8F044
:103C8000B5C098F0B6C099F0B7C09AF0B8C09BF034
:103C9000000E00018D6F0A0E8C6FB9518A6F8B6B0D
:103CA0008ABF8B0723EC39F000018A51040D010E05
:103CB000F324F66E060EF420F76E0900F5CF9CF0A3
:103CC0000900F5CF9DF00900F5CF9EF00A00F5CF71
:103CD0009FF0A3EC18F098C0B1F099C0B2F09AC070
:103CE000B3F09BC0B4F0E1EF1EF0B951800A750F3C
:103CF000D8A07DEF1EF07FEF1EF0CDEF1EF0000E7E
:103D0000936F0A0E926FB951906F916B90BF9107AC
:103D100046EC37F0090E000190279051040D010E7A
:103D2000F324F66E060EF420F76E0900F5CF98F036
:103D30000900F5CF99F00900F5CF9AF00A00F5CF08
:103D40009BF0000E8D6F0A0E8C6FB9518A6F8B6BD2
:103D50008ABF8B0723EC39F000018A51040D010E54
:103D6000F324F66E060EF420F76E0900F5CF9CF0F2
:103D70000900F5CF9DF00900F5CF9EF00A00F5CFC0
:103D80009FF0A3EC18F098C0B1F099C0B2F09AC0BF
:103D9000B3F09BC0B4F0E1EF1EF0B951040D010E79
:103DA000F324F66E060EF420F76E0900F5CFB1F09D
:103DB0000900F5CFB2F00900F5CFB3F00A00F5CF56
:103DC000B4F01200306E30BEEAEF1EF0E8EF1EF0E5
:103DD000EAEF1FF0306C3050800A120FD8A0F3EFDA
:103DE0001EF0F5EF1EF07EEF1FF0000E0A6E0A0EB9
:103DF000096E000E046E640E036E3050016E026A8E
:103E000001BE0206D4EC39F001C007F002C008F090
:103E1000A9EC37F0090E07260750040D350EF324E0
:103E2000F66E060EF420F76E0900F5CF13F00900C8
:103E3000F5CF14F00900F5CF15F00A00F5CF16F014
:103E4000000E0A6E640E096E3050076E086A07BED7
:103E50000806A9EC37F0120E07260750040D350EA0
:103E6000F324F66E060EF420F76E0900F5CF0FF07E
:103E70000900F5CF10F00900F5CF11F00A00F5CFD9
:103E800012F0B9EC1AF00FC02CF010C02DF011C0D8
:103E90002EF012C02FF02CC00FF02DC010F02EC04D
:103EA00011F02FC012F0000E046E0A0E036E305097
:103EB000016E026A01BE0206D4EC39F00150040D15
:103EC000350EF324F66E060EF420F76E0900F5CFDA
:103ED00013F00900F5CF14F00900F5CF15F00A0032
:103EE000F5CF16F0B9EC1AF00FC028F010C029F089
:103EF00011C02AF012C02BF0E7EF20F03050800AFA
:103F0000750FD8A086EF1FF088EF1FF0D4EF1FF0D9
:103F1000000E0A6E0A0E096E3050076E086A07BE60
:103F20000806A9EC37F0090E07260750040D350ED8
:103F3000F324F66E060EF420F76E0900F5CF0FF0AD
:103F40000900F5CF10F00900F5CF11F00A00F5CF08
:103F500012F0000E046E0A0E036E3050016E026AFB
:103F600001BE0206D4EC39F00150040D350EF324E5
:103F7000F66E060EF420F76E0900F5CF13F0090077
:103F8000F5CF14F00900F5CF15F00A00F5CF16F0C3
:103F9000B9EC1AF00FC028F010C029F011C02AF0B7
:103FA00012C02BF0E7EF20F03050040D350EF32453
:103FB000F66E060EF420F76E0900F5CF28F0090022
:103FC000F5CF29F00900F5CF2AF00A00F5CF2BF044
:103FD000E7EF20F03050800A120FD8A0F2EF1FF068
:103FE000F4EF1FF07DEF20F0000E0A6E0A0E096E4E
:103FF000000E046E640E036E3050016E026A01BE44
:104000000206D4EC39F001C007F002C008F0A9ECB8
:1040100037F0090E07260750040D010EF324F66E43
:10402000060EF420F76E0900F5CF13F00900F5CF66
:1040300014F00900F5CF15F00A00F5CF16F0000EC8
:104040000A6E640E096E3050076E086A07BE0806D5
:10405000A9EC37F0120E07260750040D010EF324C9
:10406000F66E060EF420F76E0900F5CF0FF009008A
:10407000F5CF10F00900F5CF11F00A00F5CF12F0DE
:10408000B9EC1AF00FC02CF010C02DF011C02EF0BA
:1040900012C02FF02CC00FF02DC010F02EC011F068
:1040A0002FC012F0000E046E0A0E036E3050016E27
:1040B000026A01BE0206D4EC39F00150040D010E73
:1040C000F324F66E060EF420F76E0900F5CF13F018
:1040D0000900F5CF14F00900F5CF15F00A00F5CF6F
:1040E00016F0B9EC1AF00FC028F010C029F011C07A
:1040F0002AF012C02BF0E7EF20F03050800A750F45
:10410000D8A085EF20F087EF20F0D3EF20F0000E4D
:104110000A6E0A0E096E3050076E086A07BE08065E
:10412000A9EC37F0090E07260750040D010EF32401
:10413000F66E060EF420F76E0900F5CF0FF00900B9
:10414000F5CF10F00900F5CF11F00A00F5CF12F00D
:10415000000E046E0A0E036E3050016E026A01BE3C
:104160000206D4EC39F00150040D010EF324F66E72
:10417000060EF420F76E0900F5CF13F00900F5CF15
:1041800014F00900F5CF15F00A00F5CF16F0B9ECE0
:104190001AF00FC028F010C029F011C02AF012C088
:1041A0002BF0E7EF20F03050040D010EF324F66EF3
:1041B000060EF420F76E0900F5CF28F00900F5CFC0
:1041C00029F00900F5CF2AF00A00F5CF2BF01200F4
:1041D000010120EE02F0F851D926F951DA22020E3F
:1041E000DE18DE10D8A4F7EF20F0F9EF20F021EF71
:1041F00021F0000E00018D6F000E8E6F010E8F6F8B
:10420000010E0BEC38F0000E00018D6F220E8E6F48
:10421000010E8F6F020E0BEC38F0000E00018D6F57
:10422000110E8E6F010E8F6F030E0BEC38F0000E27
:1042300000018D6F000E8E6F010E8F6F040E0BEC60
:1042400038F0F8C1D9FFF9C1DAFF020EDE18DE102E
:10425000D8A42DEF21F02FEF21F0ABEF21F00101D9
:1042600020EE02F0F851D926F951DA22020EDE18BA
:10427000DE10D8B43EEF21F040EF21F0ABEF21F09B
:1042800020EE02F0F851D926F951DA22DE50DE1084
:10429000D8A44DEF21F04FEF21F05BEF21F0060E97
:1042A00000018D6FB20E8E6F060E8F6F020E0BEC3B
:1042B00038F074EF21F020EE02F0F851D926F951D0
:1042C000DA22DE04DE10D8A468EF21F06AEF21F0D4
:1042D00074EF21F0060E00018D6F950E8E6F060EA5
:1042E0008F6F020E0BEC38F0010120EE04F0F85154
:1042F000D926F951DA22DE50DE10D8A482EF21F05F
:1043000084EF21F090EF21F0080E00018D6FA90ECF
:104310008E6F060E8F6F030E0BEC38F0B6EF22F0A7
:1043200020EE04F0F851D926F951DA22DE04DE102D
:10433000D8A49DEF21F09FEF21F0B6EF22F0080EF8
:1043400000018D6FA00E8E6F060E8F6F030E0BECAB
:1043500038F0B6EF22F0F8C1D9FFF9C1DAFFDE0478
:10436000DE10D8A4B6EF21F0B8EF21F0FDEF21F078
:10437000010120EE02F0F851D926F951DA22020E9D
:10438000DE18DE10D8B4C7EF21F0C9EF21F0FDEF41
:1043900021F0D90E0001D66F010ED76FD40ED86F61
:1043A000060ED96FEDC0DAF0EEC0DBF070EC03F072
:1043B0000C0E00018D6FD90E8E6F010E8F6F020EE5
:1043C0000BEC38F0D90E0001D66F010ED76FD40E6A
:1043D000D86F060ED96FEBC0DAF0ECC0DBF070ECF2
:1043E00003F00C0E00018D6FD90E8E6F010E8F6FD2
:1043F000030E0BEC38F0B6EF22F0F8C1D9FFF9C18B
:10440000DAFF030EDE18DE10D8A409EF22F00BEF5E
:1044100022F0B6EF22F0010120EE02F0F851D92689
:10442000F951DA22020EDE18DE10D8B41AEF22F0AB
:104430001CEF22F0B6EF22F058EC3DF019EC3DF005
:10444000000E00019C6F000E9D6FC80E9E6F420E05
:104450009F6FE7C098F0E8C099F0E9C09AF0EAC011
:104460009BF0A3EC18F098C0B1F099C0B2F09AC0DC
:10447000B3F09BC0B4F0000E0001B56F000EB66F34
:10448000A00EB76F400EB86FC0EC22F0B1C0FCF1C7
:10449000B2C0FDF1B3C0FEF1B4C0FFF1D90E00010E
:1044A000D66F010ED76FC00ED86F060ED96FFCC144
:1044B000DAF0FDC1DBF0FEC1DCF0FFC1DDF070EC35
:1044C00003F00B0E00018D6FD90E8E6F010E8F6FF2
:1044D000020E0BEC38F0000E00019C6F000E9D6F79
:1044E000C80E9E6F420E9F6FE3C098F0E4C099F033
:1044F000E5C09AF0E6C09BF0A3EC18F098C0B1F0CC
:1045000099C0B2F09AC0B3F09BC0B4F0000E0001A5
:10451000B56F000EB66FA00EB76F400EB86FC0EC4F
:1045200022F0B1C0FCF1B2C0FDF1B3C0FEF1B4C0E5
:10453000FFF1D90E0001D66F010ED76FC00ED86FF4
:10454000060ED96FFCC1DAF0FDC1DBF0FEC1DCF074
:10455000FFC1DDF070EC03F00B0E00018D6FD90E82
:104560008E6F010E8F6F030E0BEC38F0410E0101C0
:10457000FA6FEE0EE82EFED7FA2FFCD700F01200ED
:104580000001B451800BC16FB451B425C86FB3AFF3
:10459000CCEF22F0CEEF22F0CFEF22F0C881C8514D
:1045A000D8B4D5EF22F0D7EF22F0ECEF22F0C829F3
:1045B000D8A4DDEF22F0DFEF22F0E7EF22F0000ECB
:1045C000B16F000EB26F000EB36F000EB46FB38FF9
:1045D000000EB46FF4EF22F0000EB16F000EB26F58
:1045E000000EB36F000EB46FB851800BC11BB851F1
:1045F000B825C96FB7AFFFEF22F001EF23F002EF4C
:1046000023F0C981C951D8B408EF23F00AEF23F091
:104610001FEF23F0C929D8A410EF23F012EF23F0E5
:104620001AEF23F0000EB56F000EB66F000EB76FD5
:10463000000EB86FB78F000EB86F27EF23F0000E93
:10464000B56F000EB66F000EB76F000EB86FB551A4
:10465000B611B711B811D8A430EF23F032EF23F020
:104660004AEF23F0000EB16F000EB26F000EB36F71
:10467000000EB46F800EB3137F0EB413C151B41388
:10468000B1C0B1F0B2C0B2F0B3C0B3F0B4C0B4F0D6
:104690008DEF24F0C851D8A450EF23F052EF23F04F
:1046A0005CEF23F0000EB16F000EB26F000EB36F1F
:1046B000000EB46F8DEF24F0C951C8C0B9F0BA6BC9
:1046C000B95F000EBA5B7F0EB925C26F000EBA212A
:1046D000C36FB1C0BDF0B2C0BEF0B3C0BFF0B4C0D4
:1046E000C0F0000EB16F000EB26F000EB36F000E7F
:1046F000B46F000EC46F000EC56F000EC66F000EC3
:10470000C76F000EC96FBDEF23F0C951D8B48BEF4E
:1047100023F08DEF23F0A4EF23F0D890BD37BE3700
:10472000BF37C037D890B137B237B337B437C7AF18
:104730009CEF23F09EEF23F09FEF23F0B181D89000
:10474000C437C537C637C737B551BD5DB651BE5939
:10475000B751BF59B851C059D8A0B1EF23F0B3EF4A
:1047600023F0BCEF23F0C78DB551BD5FB651BE5BE2
:10477000B751BF5BB851C05BC92B190EC965C3EFF8
:1047800023F0C5EF23F085EF23F0BD51BE11BF111B
:10479000C011D8B4CEEF23F0D0EF23F0E8EF23F030
:1047A000C481E8EF23F0D890B137B237B337B437CC
:1047B000C7AFDDEF23F0DFEF23F0E0EF23F0B181AF
:1047C000D890C437C537C637C737C207D8A0C30784
:1047D000B3AFEDEF23F0EFEF23F0D3EF23F0000EB4
:1047E000C96FC7AFF6EF23F0F8EF23F01CEF24F00A
:1047F000FF0EC415B96FFF0EC515BA6FFF0EC615B3
:10480000BB6F7F0EC715BC6FB951BA11BB11BC117C
:10481000D8B40DEF24F00FEF24F013EF24F0010EC5
:10482000C96F1CEF24F0B1A118EF24F01AEF24F0A7
:104830001CEF24F00FEF24F0C951D8B422EF24F07C
:1048400024EF24F048EF24F0010EB127000EB2232C
:10485000B323B423B4A12FEF24F031EF24F048EFB9
:1048600024F0B1C0B9F0B2C0BAF0B3C0BBF0B4C06C
:10487000BCF0BC35BC33BB33BA33B933B9C0B1F0CB
:10488000BAC0B2F0BBC0B3F0BCC0B4F0C24BC32BD3
:10489000C3BF53EF24F0C35108E1C229D8A053EF9E
:1048A00024F055EF24F060EF24F0000EC36FC269CE
:1048B000000EB16F000EB26F000EB36F000EB46F3A
:1048C000C3BF6DEF24F0C35106E1C205D8B06BEF52
:1048D00024F06DEF24F07BEF24F0000EC36F000E88
:1048E000C26F000EB16F000EB26F000EB36F000EFC
:1048F000B46F000EC16FC2C0C8F0C8A182EF24F02F
:1049000084EF24F087EF24F0B38F88EF24F0B39F77
:10491000D890C831B46F3EEF23F012002B50800BBB
:10492000386E2B502B243F6E2AAE99EF24F09BEF6C
:1049300024F09CEF24F03F803F50D8B4A2EF24F045
:10494000A4EF24F0B9EF24F03F28D8A4AAEF24F074
:10495000ACEF24F0B4EF24F0000E286E000E296EA8
:10496000000E2A6E000E2B6E2A8E000E2B6EC1EFEB
:1049700024F0000E286E000E296E000E2A6E000E26
:104980002B6E2F50800B381A2F502F24406E2EAED6
:10499000CCEF24F0CEEF24F0CFEF24F04080405055
:1049A000D8B4D5EF24F0D7EF24F0ECEF24F0402872
:1049B000D8A4DDEF24F0DFEF24F0E7EF24F0000EC1
:1049C0002C6E000E2D6E000E2E6E000E2F6E2E8E93
:1049D000000E2F6EF4EF24F0000E2C6E000E2D6EE4
:1049E000000E2E6E000E2F6E2C502D102E102F103C
:1049F000D8A4FDEF24F0FFEF24F017EF25F0000E10
:104A0000286E000E296E000E2A6E000E2B6E800E90
:104A10002A127F0E2B1238502B1228C028F029C0E2
:104A200029F02AC02AF02BC02BF05AEF26F03F5075
:104A3000D8A41DEF25F01FEF25F029EF25F0000E7B
:104A4000286E000E296E000E2A6E000E2B6E5AEF95
:104A500026F040503FC030F0316A305E000E315ACF
:104A60007F0E3024396E000E31203A6E28C034F0AB
:104A700029C035F02AC036F02BC037F0000E286E62
:104A8000000E296E000E2A6E000E2B6E000E3B6E7D
:104A9000000E3C6E000E3D6E000E3E6E000E406E2F
:104AA0008AEF25F04050D8B458EF25F05AEF25F0A2
:104AB00071EF25F0D8903436353636363736D89003
:104AC000283629362A362B363EAE69EF25F06BEFB5
:104AD00025F06CEF25F02880D8903B363C363D36EB
:104AE0003E362C50345C2D5035582E5036582F50B1
:104AF0003758D8A07EEF25F080EF25F089EF25F01C
:104B00003E8C2C50345E2D50355A2E50365A2F5034
:104B1000375A402A190E406490EF25F092EF25F0A5
:104B200052EF25F03450351036103710D8B49BEFC3
:104B300025F09DEF25F0B5EF25F03B80B5EF25F092
:104B4000D890283629362A362B363EAEAAEF25F0E5
:104B5000ACEF25F0ADEF25F02880D8903B363C3601
:104B60003D363E363906D8A03A062AAEBAEF25F0D1
:104B7000BCEF25F0A0EF25F0000E406E3EAEC3EF77
:104B800025F0C5EF25F0E9EF25F0FF0E3B14306E60
:104B9000FF0E3C14316EFF0E3D14326E7F0E3E143C
:104BA000336E3050311032103310D8B4DAEF25F0B4
:104BB000DCEF25F0E0EF25F0010E406EE9EF25F087
:104BC00028A0E5EF25F0E7EF25F0E9EF25F0DCEF91
:104BD00025F04050D8B4EFEF25F0F1EF25F015EFB8
:104BE00026F0010E2826000E29222A222B222BA095
:104BF000FCEF25F0FEEF25F015EF26F028C030F091
:104C000029C031F02AC032F02BC033F033343332B4
:104C100032323132303230C028F031C029F032C067
:104C20002AF033C02BF0394A3A2A3ABE20EF26F058
:104C30003A5008E13928D8A020EF26F022EF26F0DC
:104C40002DEF26F0000E3A6E3968000E286E000E29
:104C5000296E000E2A6E000E2B6E3ABE3AEF26F039
:104C60003A5006E13904D8B038EF26F03AEF26F092
:104C700048EF26F0000E3A6E000E396E000E286ED8
:104C8000000E296E000E2A6E000E2B6E000E386E7E
:104C900039C03FF03FA04FEF26F051EF26F054EF20
:104CA00026F02A8E55EF26F02A9ED8903F302B6EA4
:104CB0000BEF25F0120020EE02F07450D92675504B
:104CC000DA22020EDE18DE10D8A469EF26F06BEFB0
:104CD00026F08FEF26F0000E046E000E056E010E1A
:104CE000066E010EC7EC38F0000E046E220E056E43
:104CF000010E066E020EC7EC38F0000E046E110EA7
:104D0000056E010E066E030EC7EC38F0000E046E41
:104D1000000E056E010E066E040EC7EC38F074C06E
:104D2000D9FF75C0DAFF020EDE18DE10D8A49BEFA3
:104D300026F09DEF26F013EF27F020EE02F07450DE
:104D4000D9267550DA22020EDE18DE10D8B4ABEF89
:104D500026F0ADEF26F013EF27F020EE02F07450AE
:104D6000D9267550DA22DE50DE10D8A4BAEF26F02C
:104D7000BCEF26F0C7EF26F0060E046EB20E056EED
:104D8000060E066E020EC7EC38F0DFEF26F020EEBE
:104D900002F07450D9267550DA22DE04DE10D8A451
:104DA000D4EF26F0D6EF26F0DFEF26F0060E046EE5
:104DB000950E056E060E066E020EC7EC38F020EE5C
:104DC00004F07450D9267550DA22DE50DE10D8A4D3
:104DD000ECEF26F0EEEF26F0F9EF26F0080E046E69
:104DE000A90E056E060E066E030EC7EC38F010EF26
:104DF00028F020EE04F07450D9267550DA22DE0433
:104E0000DE10D8A406EF27F008EF27F010EF28F007
:104E1000080E046EA00E056E060E066E030EC7EC9D
:104E200038F010EF28F074C0D9FF75C0DAFFDE0447
:104E3000DE10D8A41EEF27F020EF27F060EF27F058
:104E400020EE02F07450D9267550DA22020EDE18D8
:104E5000DE10D8B42EEF27F030EF27F060EF27F008
:104E6000D90E4D6E010E4E6ED40E4F6E060E506E64
:104E7000EDC051F0EEC052F0A1EC0AF00C0E046E41
:104E8000D90E056E010E066E020EC7EC38F0D90E73
:104E90004D6E010E4E6ED40E4F6E060E506EEBC070
:104EA00051F0ECC052F0A1EC0AF00C0E046ED90ED9
:104EB000056E010E066E030EC7EC38F010EF28F0F9
:104EC00074C0D9FF75C0DAFF030EDE18DE10D8A457
:104ED0006CEF27F06EEF27F010EF28F020EE02F0D5
:104EE0007450D9267550DA22020EDE18DE10D8B4BE
:104EF0007CEF27F07EEF27F010EF28F012EC3EF069
:104F0000D5EC3DF0000E136E000E146EC80E156E3B
:104F1000420E166EE7C00FF0E8C010F0E9C011F0C5
:104F2000EAC012F0B9EC1AF00FC028F010C029F056
:104F300011C02AF012C02BF0000E2C6E000E2D6E48
:104F4000A00E2E6E400E2F6E8EEC24F028C078F04E
:104F500029C079F02AC07AF02BC07BF0D90E4D6EB3
:104F6000010E4E6EC00E4F6E060E506E78C051F0A0
:104F700079C052F07AC053F07BC054F0A1EC0AF033
:104F80000B0E046ED90E056E010E066E020EC7ECF6
:104F900038F0000E136E000E146EC80E156E420E21
:104FA000166EE3C00FF0E4C010F0E5C011F0E6C0EB
:104FB00012F0B9EC1AF00FC028F010C029F011C09F
:104FC0002AF012C02BF0000E2C6E000E2D6EA00EDB
:104FD0002E6E400E2F6E8EEC24F028C078F029C083
:104FE00079F02AC07AF02BC07BF0D90E4D6E010EFD
:104FF0004E6EC00E4F6E060E506E78C051F079C0E6
:1050000052F07AC053F07BC054F0A1EC0AF00B0EC2
:10501000046ED90E056E010E066E030EC7EC38F055
:10502000410E766EEE0EE82EFED7762EFCD700D01F
:1050300012000001BD6F6D0E0001BD6522EF28F06A
:1050400024EF28F0D6EF28F0000E9C6F000E9D6F25
:10505000000E9E6F3F0E9F6F000E926F640E916F59
:10506000BDC08FF0906B4FEC3EF00001D8908F37B1
:105070009037D8908F379037480E8F27000E9023A7
:10508000350E8F25F66E060E9021F76E0900F5CFCE
:1050900098F00900F5CF99F00900F5CF9AF00A00D1
:1050A000F5CF9BF0A3EC18F098C0B9F099C0BAF016
:1050B0009AC0BBF09BC0BCF0000E0001926F0A0EBC
:1050C000916F000E8D6F640E8C6FBDC08AF08B6B7C
:1050D000C4EC3EF08AC08FF08BC090F04FEC3EF0F5
:1050E0000001D8908F379037D8908F379037240EA3
:1050F0008F27000E9023350E8F25F66E060E902119
:10510000F76E0900F5CF9CF00900F5CF9DF009007E
:10511000F5CF9EF00A00F5CF9FF0B9C098F0BAC065
:1051200099F0BBC09AF0BCC09BF0A3EC18F098C0FB
:10513000B5F099C0B6F09AC0B7F09BC0B8F0B5C052
:1051400098F0B6C099F0B7C09AF0B8C09BF0000EC6
:1051500000018D6F0A0E8C6FBDC08AF08B6BC4ECA2
:105160003EF00001D8908A378B37D8908A378B373A
:10517000350E8A25F66E060E8B21F76E0900F5CFE7
:105180009CF00900F5CF9DF00900F5CF9EF00A00D4
:10519000F5CF9FF0A3EC18F098C0B1F099C0B2F031
:1051A0009AC0B3F09BC0B4F073EF29F00A0EBD654E
:1051B000DCEF28F0DEEF28F04DEF29F0000E9C6FB9
:1051C000000E9D6F000E9E6F3F0E9F6F000E926F40
:1051D0000A0E916FBDC08FF0906B4FEC3EF0000156
:1051E000D8908F379037D8908F379037240E8F27ED
:1051F000000E9023350E8F25F66E060E9021F76E69
:105200000900F5CF98F00900F5CF99F00900F5CF26
:105210009AF00A00F5CF9BF0A3EC18F098C0B9F013
:1052200099C0BAF09AC0BBF09BC0BCF0B9C098F06E
:10523000BAC099F0BBC09AF0BCC09BF0000E000150
:105240008D6F0A0E8C6FBDC08AF08B6BC4EC3EF084
:105250000001D8908A378B37D8908A378B37350E34
:105260008A25F66E060E8B21F76E0900F5CF9CF0AD
:105270000900F5CF9DF00900F5CF9EF00A00F5CFAB
:105280009FF0A3EC18F098C0B1F099C0B2F09AC0AA
:10529000B3F09BC0B4F073EF29F0BD51040D350E8F
:1052A000F324F66E060EF420F76E0900F5CF98F0A1
:1052B0000900F5CF99F00900F5CF9AF00A00F5CF73
:1052C0009BF0000E9C6F000E9D6F000E9E6F3F0EB8
:1052D0009F6FA3EC18F098C0B1F099C0B2F09AC0DB
:1052E000B3F09BC0B4F01200346E6D0E34647BEFEB
:1052F00029F07DEF29F02AEF2AF0000E136E000E40
:10530000146E000E156E3F0E166E000E096E640EC2
:10531000086E34C006F0076A8AEC3EF0D890063674
:105320000736D89006360736480E0626000E0722A6
:10533000350E0624F66E060E0720F76E0900F5CF2F
:105340000FF00900F5CF10F00900F5CF11F00A00B9
:10535000F5CF12F0B9EC1AF00FC030F010C031F0F8
:1053600011C032F012C033F0000E096E0A0E086E42
:10537000000E046E640E036E34C001F0026AF7EC96
:105380003EF001C006F002C007F08AEC3EF0D89073
:1053900006360736D89006360736240E0626000E47
:1053A0000722350E0624F66E060E0720F76E09005A
:1053B000F5CF13F00900F5CF14F00900F5CF15F083
:1053C0000A00F5CF16F030C00FF031C010F032C037
:1053D00011F033C012F0B9EC1AF00FC02CF010C06D
:1053E0002DF011C02EF012C02FF02CC00FF02DC0E8
:1053F00010F02EC011F02FC012F0000E046E0A0E35
:10540000036E34C001F0026AF7EC3EF0D89001362A
:105410000236D89001360236350E0124F66E060E9D
:105420000220F76E0900F5CF13F00900F5CF14F054
:105430000900F5CF15F00A00F5CF16F0B9EC1AF017
:105440000FC028F010C029F011C02AF012C02BF0B4
:10545000C4EF2AF00A0E346430EF2AF032EF2AF05B
:105460009EEF2AF0000E136E000E146E000E156EE5
:105470003F0E166E000E096E0A0E086E34C006F05E
:10548000076A8AEC3EF0D89006360736D890063682
:105490000736240E0626000E0722350E0624F66E69
:1054A000060E0720F76E0900F5CF0FF00900F5CFC3
:1054B00010F00900F5CF11F00A00F5CF12F0B9ECA9
:1054C0001AF00FC030F010C031F011C032F012C02D
:1054D00033F030C00FF031C010F032C011F033C0E3
:1054E00012F0000E046E0A0E036E34C001F0026A60
:1054F000F7EC3EF0D89001360236D89001360236ED
:10550000350E0124F66E060E0220F76E0900F5CF67
:1055100013F00900F5CF14F00900F5CF15F00A00DB
:10552000F5CF16F0B9EC1AF00FC028F010C029F032
:1055300011C02AF012C02BF0C4EF2AF03450040D31
:10554000350EF324F66E060EF420F76E0900F5CF43
:105550000FF00900F5CF10F00900F5CF11F00A00A7
:10556000F5CF12F0000E136E000E146E000E156EC5
:105570003F0E166EB9EC1AF00FC028F010C029F0DB
:1055800011C02AF012C02BF01200000E0001936F20
:10559000000E926F000E946F81CF91F080EF2BF090
:1055A000000E956F690E9525F66EF76A060EF722C6
:1055B0000800F550FF0A811283B6E1EF2AF0E3EF0D
:1055C0002AF0FCEF2AF0000E8B6F140E8A6F29EC84
:1055D0003FF083B6EEEF2AF0F0EF2AF0FCEF2AF06E
:1055E00083A6F5EF2AF0F7EF2AF0F0EF2AF000019A
:1055F0009529946F75EF2BF083B401EF2BF003EF37
:105600002BF01EEF2BF0000E00018B6F140E8A6F33
:1056100029EC3FF083B40FEF2BF011EF2BF01EEFCE
:105620002BF083A416EF2BF018EF2BF011EF2BF0DB
:1056300000019551040F946F75EF2BF083B223EFA7
:105640002BF025EF2BF040EF2BF0000E00018B6FBD
:10565000140E8A6F29EC3FF083B231EF2BF033EF59
:105660002BF040EF2BF083A238EF2BF03AEF2BF02A
:1056700033EF2BF000019551070F946F75EF2BF06E
:1056800083B045EF2BF047EF2BF062EF2BF0000ECD
:1056900000018B6F140E8A6F29EC3FF083B053EF3B
:1056A0002BF055EF2BF062EF2BF083A05AEF2BF08D
:1056B0005CEF2BF055EF2BF0000195510A0F946F22
:1056C00075EF2BF0690E00019525F66EF76A060E50
:1056D000F7220800F5508116952B020E956573EFA1
:1056E0002BF075EF2BF0D2EF2AF0000E8B6F050E2A
:1056F0008A6F29EC3FF0050E00019227000E9323DC
:105700008F51925D90519359D8A089EF2BF08BEF78
:105710002BF094EF2BF08F519011D8A492EF2BF037
:1057200094EF2BF09CEF2BF09451D8B49AEF2BF020
:105730009CEF2BF0D0EF2AF09451D8A4A2EF2BF0DD
:10574000A4EF2BF0A5EF2BF094690B0E9419D8A4BD
:10575000ACEF2BF0AEEF2BF0B0EF2BF0000E946F10
:1057600091C081FF945112000001926F000192518B
:10577000D8B4BDEF2BF0BFEF2BF0E1EF2BF08DBFD6
:10578000C6EF2BF0C4EF2BF0E1EF2BF08AC08EF0C8
:105790008BC08FF08CC090F08DC091F08E1F8F1F4A
:1057A000901F911F8E2B000E8F23902391238EC06C
:1057B00094F08FC095F090C096F091C097F0E9EF0B
:1057C0002BF08AC094F08BC095F08CC096F08DC001
:1057D00097F08A518B118C118D11D8A4F2EF2BF018
:1057E000F4EF2BF0FEEF2BF0000E8A6F000E8B6FA4
:1057F000000E8C6F000E8D6F8FEF2CF0960E936F56
:1058000008EF2CF0932BD89097339633953394333D
:10581000000E94158E6F000E95158F6F000E961565
:10582000906FFE0E9715916F8E518F1190119111FF
:10583000D8A41DEF2CF01FEF2CF002EF2CF02DEF71
:105840002CF0932B010E9427000E9523962397237B
:10585000D8909733963395339433000E94158E6F0A
:10586000000E95158F6F000E9615906FFF0E971511
:10587000916F8E518F1190119111D8A442EF2CF09D
:1058800044EF2CF021EF2CF04CEF2CF09307D89044
:10589000943795379637973796BF51EF2CF053EFE3
:1058A0002CF05BEF2CF0020E936159EF2CF05BEFC4
:1058B0002CF046EF2CF093B160EF2CF062EF2CF05F
:1058C00063EF2CF0969FD890933393C08EF08F6B3C
:1058D000906B916B8EC091F0906B8F6B8E6B8E5135
:1058E00094138F5195139051961391519713925190
:1058F000D8B47DEF2CF07FEF2CF087EF2CF08DBF2C
:1059000086EF2CF084EF2CF087EF2CF0978F94C06B
:105910008AF095C08BF096C08CF097C08DF0120085
:10592000096E0950D8B497EF2CF099EF2CF0BBEF2B
:105930002CF004BEA0EF2CF09EEF2CF0BBEF2CF06F
:1059400001C005F002C006F003C007F004C008F073
:10595000051E061E071E081E052A000E0622072227
:10596000082205C00BF006C00CF007C00DF008C0FF
:105970000EF0C3EF2CF001C00BF002C00CF003C01E
:105980000DF004C00EF00150021003100410D8A452
:10599000CCEF2CF0CEEF2CF0D8EF2CF0000E016EF7
:1059A000000E026E000E036E000E046E69EF2DF005
:1059B000960E0A6EE2EF2CF00A2AD8900E320D32C3
:1059C0000C320B32000E0B14056E000E0C14066E1A
:1059D000000E0D14076EFE0E0E14086E0550061014
:1059E00007100810D8A4F7EF2CF0F9EF2CF0DCEF3B
:1059F0002CF007EF2DF00A2A010E0B26000E0C22C8
:105A00000D220E22D8900E320D320C320B32000EC7
:105A10000B14056E000E0C14066E000E0D14076EAE
:105A2000FF0E0E14086E0550061007100810D8A4BB
:105A30001CEF2DF01EEF2DF0FBEF2CF026EF2DF0DC
:105A40000A06D8900B360C360D360E360DBE2BEFEF
:105A50002DF02DEF2DF035EF2DF0020E0A6033EF13
:105A60002DF035EF2DF020EF2DF00AB03AEF2DF0AC
:105A70003CEF2DF03DEF2DF00D9ED8900A320AC07C
:105A800005F0066A076A086A05C008F0076A066A30
:105A9000056A05500B1206500C1207500D120850E3
:105AA0000E120950D8B457EF2DF059EF2DF061EFD9
:105AB0002DF004BE60EF2DF05EEF2DF061EF2DF0C4
:105AC0000E8E0BC001F00CC002F00DC003F00EC032
:105AD00004F012008CC092F00001936B946B8B3534
:105AE000923701E3938192519A6F9A51D8A47BEF38
:105AF0002DF07DEF2DF087EF2DF0000E8A6F000E58
:105B00008B6F000E8C6F000E8D6F15EF2EF090C016
:105B100092F0936B946B8F35923701E3938192519E
:105B2000996F9951D8A497EF2DF099EF2DF09BEF35
:105B30002DF07DEF2DF08B8FFF0E8A17FF0E8B1748
:105B4000000E8C178F8FFF0E8E17FF0E8F17000E13
:105B50009017000E956F000E966F000E976F000E57
:105B6000986F7F0E9A5F9951980F9A5F180E996FF0
:105B7000D89095379637973798378E518A5D8F51E1
:105B80008B5990518C59D8A0C8EF2DF0CAEF2DF049
:105B9000D1EF2DF08E518A5F8F518B5B90518C5BD2
:105BA0009581D8908A378B378C37992FB8EF2DF0A5
:105BB0009ABFDFEF2DF0DDEF2DF0F5EF2DF09A51CC
:105BC000800A970FD8B0E7EF2DF0E9EF2DF0EBEF5B
:105BD0002DF07DEF2DF0D890983397339633953391
:105BE0009A3FEBEF2DF00DEF2EF0170E9A65FBEFBD
:105BF0002DF0FDEF2DF005EF2EF07DEF2DF0D8907C
:105C000095379637973798379A079A51D8A40BEF5C
:105C10002EF00DEF2EF0FFEF2DF095C08AF096C01C
:105C20008BF097C08CF098C08DF0120003C009F083
:105C30000A6A0B6A0234093601E30A800950116EC0
:105C40001150D8A426EF2EF028EF2EF032EF2EF0D0
:105C5000000E016E000E026E000E036E000E046E4A
:105C6000C0EF2EF007C009F00A6A0B6A0634093645
:105C700001E30A800950106E1050D8A442EF2EF0B4
:105C800044EF2EF046EF2EF028EF2EF0028EFF0E9E
:105C90000116FF0E0216000E0316068EFF0E0516E5
:105CA000FF0E0616000E0716000E0C6E000E0D6E8F
:105CB000000E0E6E000E0F6E7F0E115E1050980FCC
:105CC000115E180E106ED8900C360D360E360F364B
:105CD0000550015C0650025807500358D8A073EFD6
:105CE0002EF075EF2EF07CEF2EF00550015E065081
:105CF000025A0750035A0C80D890013602360336F8
:105D0000102E63EF2EF011BE8AEF2EF088EF2EF0EA
:105D1000A0EF2EF01150800A970FD8B092EF2EF01E
:105D200094EF2EF096EF2EF028EF2EF0D8900F3251
:105D30000E320D320C32113E96EF2EF0B8EF2EF0EF
:105D4000170E1164A6EF2EF0A8EF2EF0B0EF2EF094
:105D500028EF2EF0D8900C360D360E360F36110681
:105D60001150D8A4B6EF2EF0B8EF2EF0AAEF2EF017
:105D70000CC001F00DC002F00EC003F00FC004F023
:105D80001200010E54EC31F00C0E54EC31F0020E06
:105D9000000192199311D8A4D0EF2EF0D2EF2EF07B
:105DA000FBEF2EF0000E8D6F660E8E6F010E8F6F63
:105DB000010E0BEC38F0000E00018D6FB20E8E6FED
:105DC000010E8F6F020E0BEC38F0000E00018D6F8C
:105DD000A90E8E6F010E8F6F030E0BEC38F0000EC4
:105DE00000018D6F550E8E6F010E8F6F040E0BEC40
:105DF00038F05EEF2FF092059311D8A402EF2FF048
:105E000004EF2FF02DEF2FF0000E8D6F440E8E6FEC
:105E1000010E8F6F010E0BEC38F0000E00018D6F3C
:105E2000840E8E6F010E8F6F020E0BEC38F0000E99
:105E300000018D6F770E8E6F010E8F6F030E0BECCE
:105E400038F0000E00018D6F330E8E6F010E8F6FD4
:105E5000040E0BEC38F05EEF2FF0030E9219931145
:105E6000D8A435EF2FF037EF2FF05EEF2FF0000EB4
:105E70008D6F110E8E6F020E8F6F010E0BEC38F0CE
:105E8000000E00018D6F9D0E8E6F010E8F6F020E42
:105E90000BEC38F0000E00018D6F910E8E6F010E2D
:105EA0008F6F030E0BEC38F0000E00018D6F000EAB
:105EB0008E6F020E8F6F040E0BEC38F0410E000156
:105EC000946FEE0EE82EFED7942FFCD700F0120050
:105ED00000018C358D35976F9751D8A472EF2FF054
:105EE00074EF2FF07EEF2FF0000E8A6F000E8B6F95
:105EF000000E8C6F000E8D6F0EEF30F090359135E7
:105F0000966F9651D8A487EF2FF089EF2FF08BEF83
:105F10002FF074EF2FF08C8FFF0E8A17FF0E8B1768
:105F2000FF0E8C17000E8D17908FFF0E8E17FF0E31
:105F30008F17FF0E9017000E9117000E926F000E34
:105F4000936F000E946F000E956F7F0E975F9651C2
:105F5000A00F975F200E966FD890923793379437A3
:105F600095378E518A5D8F518B5990518C59915133
:105F70008D59D8A0BEEF2FF0C0EF2FF0C9EF2FF052
:105F80008E518A5F8F518B5B90518C5B91518D5BF1
:105F90009281D8908A378B378C378D37962FACEF1C
:105FA0002FF097BFD8EF2FF0D6EF2FF0EEEF2FF0B6
